:100000000C942A000C9484000C9484000C948400BA
:100010000C9484000C9484000C9484000C94840050
:100020000C9484000C9484000C9484000C94840040
:100030000C9484000C9484000C9484000C94840030
:100040000C9484000C9484000C9484000C94840020
:100050000C94840011241FBECFE5D8E0DEBFCDBFD5
:0C0060000E945C000C943400F894FFCF68
:10006C0094EA96BF06B607FEFDCF91B1987F983003
:10007C00B9F483B984E886BF06B607FEFDCF81B11B
:10008C00887F803479F484EC86BF06B607FEFDCFFA
:10009C0081B1887F803541F483B194E996BF08958E
:0C00AC0080E0089580E0089580E0089551
:1000B8008EE082B982E180B981E090E00E947B0005
:1000C8002FEF89E698E1215080409040E1F700C089
:1000D80000002FEF83EC99E0215080409040E1F739
:0E00E80000C0000089E00E9436008BBBF2CF02
:1000F600009729F0019721F48FEF8ABB08951ABA69
:0201060008955A
:040108000C94000053
:00000001FF
