:100000000C942A000C9488000C9488000C948800AE
:100010000C9488000C9488000C9488000C94880040
:100020000C9488000C9488000C9488000C94880030
:100030000C9488000C9488000C9488000C94880020
:100040000C9488000C9488000C9488000C94880010
:100050000C94880011241FBECFE5D8E0DEBFCDBFD1
:0C0060000E9463000C943400F894FFCF61
:10006C00C29A2BB32F702BBB2BB382959295907F9A
:10007C009827807F9827822B8BBB81E00E94800081
:10008C008FE99FE00197F1F700C00000C298089536
:10009C00C19A2BB32F702BBB2BB382959295907F6B
:1000AC009827807F9827822B8BBB8FE99FE0019745
:0A00BC00F1F700C00000C19808959C
:1000C6000E9478008FE39CE90197F1F700C00000D9
:1000D60087E090E00E94360083E090E00E944E00A8
:0A00E60087E090E00E943600F7CF9B
:1000F0008AB3806F8ABBBB9A87B3866087BB08953B
:10010000882321F0813019F4C39A0895C398089583
:040110000C9400004B
:00000001FF
