:100000000C942A000C9494000C9494000C9494008A
:100010000C9494000C9494000C9494000C94940010
:100020000C9494000C9494000C9494000C94940000
:100030000C9494000C9494000C9494000C949400F0
:100040000C9494000C9494000C9494000C949400E0
:100050000C94940011241FBECFE5D8E0DEBFCDBFC5
:0C0060000E9436000C943400F894FFCF8E
:10006C000E948C00C0E0D0E0E12CF12C00E010E00C
:10007C0008C00A30110529F48FEFE81AF80A00E0DD
:10008C0010E0C8010E9477009AE0E916F10411F41F
:10009C00E12CF12CC7010E94620021968FE39CE9B0
:1000AC000197F1F700C00000C336D10511F70F5FBF
:0800BC001F4FC0E0D0E0DDCFD2
:1000C400C29A2BB32F702BBB2BB382959295907F42
:1000D4009827807F9827822B8BBB8FE99FE001971D
:0A00E400F1F700C00000C298089573
:1000EE00C19A2BB32F702BBB2BB382959295907F19
:1000FE009827807F9827822B8BBB8FE99FE00197F3
:0A010E00F1F700C00000C198089549
:100118008AB3806F8ABBBB9A87B3866087BB089512
:040128000C94000033
:00000001FF
