:100000000C9430000C9424030C9424030C942403CB
:100010000C9424030C9424030C9424030C942403C4
:100020000C9424030C9424030C9424030C942403B4
:100030000C9424030C9468010C9424030C94240362
:100040000C9424030C9424030C9424030C94240394
:100050000C9424030060007100064C007100728053
:1000600011241FBECFE5D8E0DEBFCDBFE4E5F0E050
:1000700040E017C0B591A59135912591059107FDF7
:100080000CC095918591EF01F92FE82F05900D9205
:10009000A217B307D9F7FE0104C01D92A217B30738
:1000A000E1F7E036F40731F70E949B020C94580008
:0400B000F894FFCFF2
:1000B4000FC00E94FE0238F00E94050320F0952331
:1000C40011F00C9413030C94210311240C940D03CC
:1000D4000E94F40170F3959FC1F3950F50E0551FF2
:1000E400629FF001729FBB27F00DB11D639FAA2789
:1000F400F00DB11DAA1F649F6627B00DA11D661FD8
:10010400829F2227B00DA11D621F739FB00DA11DF8
:10011400621F839FA00D611D221F749F3327A00DB2
:10012400611D231F849F600D211D822F762F6A2F4E
:1001340011249F5750409AF0F1F088234AF0EE0FB3
:10014400FF1FBB1F661F771F881F91505040A9F7E0
:100154009E3F510580F00C9413030C940D035F3FF4
:10016400E4F3983ED4F3869577956795B795F7951C
:10017400E7959F5FC1F7FE2B880F911D9695879594
:0401840097F908954A
:1001880011C00E94FE0238F00E94050320F039F4E5
:100198009F3F19F426F40C9421030EF4E095E7FB35
:1001A8000C941303E92F0E94F40158F3BA1762075D
:1001B80073078407950720F079F4A6F50C940C03CF
:1001C8000EF4E0950B2EBA2FA02D0B01B90190016A
:1001D8000C01CA01A0011124FF27591B99F0593FAE
:1001E80050F4503E68F11A16F040A22F232F342FF6
:1001F8004427585FF3CF469537952795A795F04044
:100208005395C9F77EF41F16BA0B620B730B840B58
:10021800BAF09150A1F0FF0FBB1F661F771F881F10
:10022800C2F70EC0BA0F621F731F841F48F4879568
:1002380077956795B795F7959E3F08F0B0CF93955A
:0E024800880F08F09927EE0F97958795089577
:10025600E89409C097FB3EF490958095709561955A
:100266007F4F8F4F9F4F9923A9F0F92F96E9BB2710
:100276009395F695879577956795B795F111F8CF8C
:10028600FAF4BB0F11F460FF1BC06F5F7F4F8F4FF7
:100296009F4F16C0882311F096E911C0772321F0ED
:1002A6009EE8872F762F05C0662371F096E8862F85
:1002B60070E060E02AF09A95660F771F881FDAF7DC
:0A02C600880F9695879597F9089523
:1002D0001F920F920FB60F9211242F933F934F93BB
:1002E0005F936F937F938F939F93AF93BF93EF939E
:1002F000FF938CB1813419F0823459F012C00E94FE
:10030000E20289E690E00E94D30281E080937100CE
:1003100008C00E94E90280E690E00E94D302109299
:100320007100FF91EF91BF91AF919F918F917F915C
:100330006F915F914F913F912F910F900FBE0F9052
:040340001F9018955D
:100344000E94FC0188F09F5798F0B92F9927B75164
:10035400B0F0E1F0660F771F881F991F1AF0BA9565
:10036400C9F714C0B13091F00E940C03B1E00895B4
:100374000C940C03672F782F8827B85F39F0B93FA6
:10038400CCF3869577956795B395D9F73EF4909518
:0E0394008095709561957F4F8F4F9F4F089514
:1003A2009C01990F440B550B60E074E284EF90E0DE
:1003B2000E941602CA01B9010E942B0120E030E01E
:1003C20040E85DE30E941D0320E030E040E85FE387
:1003D2000E94F0020E94F70269B970BD8AB1886179
:0603E2008AB9579A089544
:1003E80057FD9058440F551F59F05F3F71F04795DE
:1003F800880F97FB991F61F09F3F79F087950895C3
:10040800121613061406551FF2CF4695F1DF08C0E1
:10041800161617061806991FF1CF869571056105FE
:040428000894089597
:10042C00A1E21A2EAA1BBB1BFD010DC0AA1FBB1FEC
:10043C00EE1FFF1FA217B307E407F50720F0A21B5E
:10044C00B30BE40BF50B661F771F881F991F1A94CB
:10045C0069F760957095809590959B01AC01BD01F5
:04046C00CF0108951F
:100470006115710581F061307105D1F444B321E05B
:1004800030E0B90102C0660F771F8A95E2F7CB0111
:10049000842B84BB089544B321E030E0B90102C04D
:1004A000660F771F8A95E2F7CB018095842384BB82
:0204B0000895AD
:1004B2006115710581F061307105D1F445B321E018
:1004C20030E0B90102C0660F771F8A95E2F7CB01CF
:1004D200842B85BB089545B321E030E0B90102C009
:1004E200660F771F8A95E2F7CB018095842385BB3F
:0204F20008956B
:1004F4006115710581F061307105D1F441B321E0DA
:1005040030E0B90102C0660F771F8A95E2F7CB018C
:10051400842B81BB089541B321E030E0B90102C0CE
:10052400660F771F8A95E2F7CB018095842381BB00
:02053400089528
:100536000E94AF0280E895E20E94D101789481E49E
:100546000E9419032FEF83EC99E0215080409040E0
:08055600E1F700C00000F3CF43
:10055E0061E070E082E090E00E94380261E070E0BD
:10056E0087E090E00E94380261E070E083E090E066
:06057E000E947A020895BC
:10058400092E0394000C11F4882352F0BB0F40F49D
:10059400BF2B11F460FF04C06F5F7F4F8F4F9F4FDD
:0205A4000895B8
:1005A600CF93DF93EC018881882331F021960E9456
:0E05B600190389918111FBCFDF91CF91089538
:0E05C40061E070E082E090E00E94590208952C
:0E05D20060E070E082E090E00E94590208951F
:0E05E0005058BB27AA270E94C4000C94C202E8
:0E05EE000E94A2016894B1110C940D030895AF
:0E05FC0000240A94161617061806090608951C
:0E060A0000240A94121613061406050608951D
:0E061800E894BB2766277727CB0197F9089552
:0C06260097F99F6780E870E060E008959D
:080632005D9BFECF8CB9089519
:08063A000E945A000C94C20258
:060642009FEF80EC08951B
:040648000C9400000E
:09064C000D4C4544204F464600C8
:080655000D4C4544204F4E00FE
:00000001FF
