:100000000C942D000C94B8000C94B8000C94B8001B
:100010000C94B8000C94B8000C94B8000C94B80080
:100020000C94B8000C94B8000C94B8000C947D00AB
:100030000C94B8000C94B8000C94B8000C94B80060
:100040000C94B8000C94B8000C94B8000C94B80050
:100050000C94B80000600062800011241FBECFE540
:10006000D8E0DEBFCDBFE4E5F0E040E017C0B591D9
:10007000A59135912591059107FD0CC0959185912C
:10008000EF01F92FE82F05900D92A217B307D9F7CA
:10009000FE0104C01D92A217B307E1F7E935F4078A
:0E00A00031F70E949D000C945500F894FFCF9C
:1000AE008130910571F01CF4892B39F01BC0823020
:1000BE00910571F0039799F015C083B7877B83BFC5
:1000CE0011C083B78F7B83BF83B7886083BF0AC09D
:1000DE0083B7877F83BF83B7806483BF03C083B733
:0C00EE00886483BF83B7682B63BF08954C
:1000FA001F920F920FB60F9211248F939F938091A4
:10010A006000909161000196909361008093600075
:10011A00CE9739F48BB380958BBB10926100109205
:10012A0060009F918F910F900FBE0F901F901895AE
:10013A0081E090E00E94AB0065E070E080E090E032
:0C014A000E9457000E94B4007894FFCF80
:10015600009729F0019721F48FEF8ABB08951ABA08
:020166000895FA
:0801680089B7816089BF089589
:040170000C940000EB
:00000001FF
