:100000000C942A000C94AC000C94AC000C94AC0042
:100010000C94AC000C94AC000C94AC000C94AC00B0
:100020000C94AC000C94AC000C94AC000C94AC00A0
:100030000C94AC000C94AC000C94AC000C94AC0090
:100040000C94AC000C94AC000C94AC000C94AC0080
:100050000C94AC0011241FBECFE5D8E0DEBFCDBFAD
:0C0060000E9489000C943400F894FFCF3B
:10006C0087E082BB80B3807F803239F118F4803115
:10007C0041F005C0803409F43CC08038D1F18FEFD9
:10008C00089582B3887F82BB8FE39CE90197F1F7D7
:10009C0000C00000909A80B3807F69F582B3887F9E
:1000AC0082BB8FE39CE90197F1F700C00000919AA5
:1000BC0080B3807F11F581E0089582B3887F82BB85
:1000CC008FE39CE90197F1F700C00000909A80B390
:1000DC00807FA9F482B3887F82BB8FE39CE9019770
:1000EC00F1F700C00000919A80B3807F51F484E056
:1000FC00089580E0089583E0089582E0089586E0F5
:06010C00089585E008954E
:100112000E94A70081E090E00E949E000E943600AB
:1001220090E00E94AE002FEF83EC99E021508040D6
:0A0132009040E1F700C00000F1CF9B
:10013C00009729F0019721F48FEF87BB089517BA28
:02014C00089514
:0A014E008FE081BB87E082BB0895BB
:040158000C94000003
:04015C0088BB0895BF
:00000001FF
