:100000000C942A000C9441010C9441010C94410180
:100010000C9441010C9441010C9441010C94410158
:100020000C9441010C9441010C9441010C94410148
:100030000C9441010C9441010C9441010C94410138
:100040000C9441010C9441010C9441010C94410128
:100050000C94410111241FBECFE5D8E0DEBFCDBF17
:0C0060000E9475000C943400F894FFCF4F
:10006C00CF93DF93C82FD62F882331F161E070E056
:10007C0085E090E00E94A00061E070E084E090E0F8
:10008C000E94A00061E070E087E090E00E94A00078
:10009C002FEF30E782E0215030408040E1F700C084
:1000AC0000008DB1D82BDDB92DB130E1C39FC0015B
:1000BC001124822B8DB90FC061E070E086E090E0D6
:1000CC000E94A0008FEF90E722E0815090402040EA
:0E00DC00E1F700C000006E9ADF91CF91089509
:1000EA0081E090E00E9434012FEF80E792E02150F6
:1000FA0080409040E1F700C0000063E081E00E9488
:10010A00360081E00E9412010E94240169E087E022
:10011A000E94E200EFE1FEE43197F1F700C000002F
:10012A0087E00E94FE00EFE1FEE43197F1F700C09C
:06013A0000008BBBEBCFBF
:100140006115710581F061307105D1F447B321E08B
:1001500030E0B90102C0660F771F8A95E2F7CB0144
:10016000842B87BB089547B321E030E0B90102C07A
:10017000660F771F8A95E2F7CB018095842387BBB2
:020180000895E0
:100182006115710581F061307105D1F448B321E048
:1001920030E0B90102C0660F771F8A95E2F7CB0102
:1001A200842B88BB089548B321E030E0B90102C036
:1001B200660F771F8A95E2F7CB018095842388BB6F
:0201C20008959E
:1001C400CF93DF93D82FC62F80E00E94120182E0E4
:1001D4000E943D018D2F0E943D018C2F0E943D0104
:1001E40081E00E9412018FE19EE40197F1F700C0C3
:0801F4000000DF91CF91089596
:1001FC00CF93C82F80E00E94120183E00E943D0142
:10020C008C2F0E943D0180E00E943D0181E00E9404
:08021C0012018FB1CF9108958A
:10022400882349F0813069F461E070E084E090E073
:100234000E94C100089560E070E084E090E00E94B4
:04024400C100089558
:1002480080E00E94120186E00E943D0181E00E9448
:1002580012018FE19EE40197F1F700C000000895B4
:10026800009729F0019721F48FEF8ABB08951ABAF5
:020278000895E7
:08027A008FB9779BFECF0895B8
:040282000C940000D8
:00000001FF
