:100000000C942A000C94AD020C94AD020C94AD0239
:100010000C94AD020C94AD020C94AD020C94AD02A4
:100020000C94AD020C94AD020C94AD020C94AD0294
:100030000C94AD020C94AD020C94AD020C94AD0284
:100040000C94AD020C94AD020C94AD020C94AD0274
:100050000C94AD0211241FBECFE5D8E0DEBFCDBFAA
:0C0060000E9414010C943400F894FFCFAF
:10006C000FC00E94860238F00E948D0220F095236A
:10007C0011F00C9494020C94AA0211240C9480029A
:10008C000E94770170F3959FC1F3950F50E0551FB7
:10009C00629FF001729FBB27F00DB11D639FAA27D1
:1000AC00F00DB11DAA1F649F6627B00DA11D661F20
:1000BC00829F2227B00DA11D621F739FB00DA11D41
:1000CC00621F839FA00D611D221F749F3327A00DFB
:1000DC00611D231F849F600D211D822F762F6A2F97
:1000EC0011249F5750409AF0F1F088234AF0EE0FFC
:1000FC00FF1FBB1F661F771F881F91505040A9F729
:10010C009E3F510580F00C9494020C9480025F3F4A
:10011C00E4F3983ED4F3869577956795B795F79564
:10012C00E7959F5FC1F7FE2B880F911D96958795DC
:04013C0097F9089592
:10014000E89409C097FB3EF4909580957095619571
:100150007F4F8F4F9F4F9923A9F0F92F96E9BB2727
:100160009395F695879577956795B795F111F8CFA3
:10017000FAF4BB0F11F460FF1BC06F5F7F4F8F4F0E
:100180009F4F16C0882311F096E911C0772321F004
:100190009EE8872F762F05C0662371F096E8862F9C
:1001A00070E060E02AF09A95660F771F881FDAF7F3
:0A01B000880F9695879597F908953A
:1001BA008AB3806F8ABB87B38E6087BBC2988FE988
:1001CA009FE00197F1F700C000000E945E0282E002
:1001DA000E94D0018FE39FE10197F1F700C0000070
:1001EA0086E00E94D0018FE39FE10197F1F700C0FA
:1001FA0000008CE00E94D0018FE39FE10197F1F7A4
:10020A0000C000008CE20E94D0019FEF20E782E04C
:0E021A00915020408040E1F700C000000895A0
:100228000E94DD0047E050E061E070E081E090E08E
:100238000E9400020E94B1020E94A7020E949A0234
:10024800EC010E945E02BE01DD0F880B990B0E9433
:10025800A2002AE137E64CE950E40E94A3020E947A
:100268007802CB010E9499018DE60E94E80186E59B
:100278000E94E8012FEF81EE94E0215080409040E9
:08028800E1F700C00000D6CF31
:100290000E947F0188F09F5798F0B92F9927B75196
:1002A000B0F0E1F0660F771F881F991F1AF0BA951A
:1002B000C9F714C0B13091F00E947F02B1E00895F7
:1002C0000C947F02672F782F8827B85F39F0B93FE9
:1002D000CCF3869577956795B395D9F73EF49095CD
:0E02E0008095709561957F4F8F4F9F4F0895C9
:1002EE0057FD9058440F551F59F05F3F71F04795D9
:1002FE00880F97FB991F61F09F3F79F087950895BE
:10030E00121613061406551FF2CF4695F1DF08C0DC
:10031E00161617061806991FF1CF869571056105F9
:04032E000894089592
:10033200CF93DF93CDB7DEB72B970FB6F894DEBF1E
:100342000FBECDBF4AE0BE016F5F7F4F0E945302D6
:10035200CE0101960E9437022B960FB6F894DEBFAB
:0A0362000FBECDBFDF91CF910895CB
:10036C00BB27FB015527AA27880F991FAA1FA41783
:10037C0010F0A41B83955051B9F7A05DAA3308F077
:10038C00A95DA193009779F7B111B1931192CB01AB
:04039C000C94270294
:1003A000CF93C82FC1988BB38F709C2F907F892BD0
:1003B0008BBB0E9468028BB3282F2F7030E1C39F44
:1003C000C0011124822B8BBB0E946802CF9108953B
:1003D000CF93C82FC19A8BB38F709C2F907F892B9E
:1003E0008BBB0E9468028BB3282F2F7030E1C39F14
:1003F000C0011124822B8BBB0E946802CF9108950B
:100400000F931F93CF93DF938C01CB01EA010E94DE
:100410004602C8010E947102CE010E949F020E9402
:0C042000AF02DF91CF911F910F91089562
:10042C00092E0394000C11F4882352F0BB0F40F4F6
:10043C00BF2B11F460FF04C06F5F7F4F8F4F9F4F36
:02044C00089511
:10044E00DC01FC01672F71917723E1F7329704C02D
:10045E007C916D9370836291AE17BF07C8F30895B8
:10046E00CF93DF93EC018881882331F021960E948F
:0E047E00E80189918111FBCFDF91CF910895A4
:10048C0027B10024969587950794969587950794A0
:0A049C00982F802D822B87B9089558
:1004A600BB274A3031F4992322F4BDE29095819519
:0604B6009F4F0C94B701FA
:1004BC0081E00E94D0018FE79EE30197F1F700C025
:0404CC00000008958F
:1004D000C39A87EC90E00197F1F700C00000C39841
:0204E00008957D
:0E04E20097B1907E97B997B1892B87B908958D
:0E04F0000E9448016894B1110C948002089596
:0E04FE00E894BB2766277727CB0197F908956E
:0E050C0000240A94161617061806090608950C
:0E051A0000240A94121613061406050608950E
:0C05280097F99F6780E870E060E008959C
:0A05340084B125B190E0922B0895E8
:08053E0096B1892B86B90895DE
:080546000E9436000C9416021D
:06054E00349BFECF08956E
:060554009FEF80EC08950A
:04055A000C940000FD
:04055E00379A08952B
:04056200369A089528
:00000001FF
