:100000000C942A000C94A4000C94A4000C94A4005A
:100010000C94A4000C94A4000C94A4000C94A400D0
:100020000C94A4000C94A4000C94A4000C94A400C0
:100030000C94A4000C94A4000C94A4000C94A400B0
:100040000C94A4000C94A4000C94A4000C94A400A0
:100050000C94A40011241FBECFE5D8E0DEBFCDBFB5
:0C0060000E9478000C943400F894FFCF4C
:10006C006115710581F061307105D1F44AB321E05D
:10007C0030E0B90102C0660F771F8A95E2F7CB0119
:10008C00842B8ABB08954AB321E030E0B90102C049
:10009C00660F771F8A95E2F7CB01809584238ABB84
:0200AC000895B5
:1000AE006115710581F061307105D1F44BB321E01A
:1000BE0030E0B90102C0660F771F8A95E2F7CB01D7
:1000CE00842B8BBB08954BB321E030E0B90102C005
:1000DE00660F771F8A95E2F7CB01809584238BBB41
:0200EE00089573
:1000F00061E070E082E090E00E94360060E070E035
:1001000087E090E00E94360087E090E00E9498002F
:10011000892B39F061E070E082E090E00E945700A6
:10012000F3CF60E070E082E090E00E945700ECCFF7
:1001300029B330E0A90102C0559547958A95E2F7A9
:08014000CA018170992708959E
:040148000C94000013
:00000001FF
