:100000000C942A000C9416010C948B000C9416018D
:100010000C9416010C9416010C9416010C94160104
:100020000C9416010C9416010C9416010C941601F4
:100030000C9416010C9416010C9416010C941601E4
:100040000C9416010C9416010C9416010C941601D4
:100050000C94160111241FBECFE5D8E0DEBFCDBF42
:10006000E4E5F0E040E017C0B591A5913591259108
:10007000059107FD0CC095918591EF01F92FE82FAF
:1000800005900D92A217B307D9F7FE0104C01D9287
:10009000A217B307E1F7E435F40731F70E94E00057
:0800A0000C945200F894FFCF0C
:1000A8008AB3806F8ABB87B38E6087BBC2988FE99B
:1000B8009FE00197F1F700C000000E94F20082E083
:1000C8000E94B0008FE39FE10197F1F700C00000A4
:1000D80086E00E94B0008FE39FE10197F1F700C02E
:1000E80000008EE00E94B0008FE39FE10197F1F7D6
:1000F80000C000008CE20E94B0009FEF20E782E081
:0E010800915020408040E1F700C000000895B3
:100116001F920F920FB60F9211242F933F934F9376
:100126005F936F937F938F939F93AF93BF93EF9359
:10013600FF9381E40E94C800FF91EF91BF91AF91B8
:100146009F918F917F916F915F914F913F912F91E9
:0A0156000F900FBE0F901F90189538
:10016000CF93C82FC1988BB38F709C2F907F892B12
:100170008BBB0E94FC008BB3282F2F7030E1C39FF4
:10018000C0011124822B8BBB0E94FC00CF910895EB
:10019000CF93C82FC19A8BB38F709C2F907F892BE0
:1001A0008BBB0E94FC008BB3282F2F7030E1C39FC4
:1001B000C0011124822B8BBB0E94FC00CF910895BB
:1001C0000E94540083E090E00E940D018BB7789468
:1001D0002FEF83E294EF215080409040E1F700C080
:0401E0000000F6CF56
:1001E40081E00E94B0008FE79EE30197F1F700C021
:0401F400000008956A
:1001F800C39A87EC90E00197F1F700C00000C3981C
:02020800089557
:10020A0025B7880F991F880F991F822B85BF0895DC
:0A021A000E9405010E9412010895E0
:080224008BB780688BBF0895C1
:04022C000C9400002E
:00000001FF
