:100000000C9433000C94A20C0C94A20C0C94A20C33
:100010000C94A20C0C94A20C0C94A20C0C949C0CAE
:100020000C94A20C0C94A20C0C94A20C0C94A20C98
:100030000C94A20C0C94A20C0C94A20C0C94A20C88
:100040000C94A20C0C94A20C0C94A20C0C94A20C78
:100050000C94A20C00600682800682068B00195068
:10006000068B06E2800011241FBECFE5D8E0DEBF7C
:10007000CDBFE4E5F0E040E017C0B591A591359122
:100080002591059107FD0CC095918591EF01F92F00
:10009000E82F05900D92A217B307D9F7FE0104C00F
:1000A0001D92A217B307E1F7E536F40731F70E9476
:0A00B00064090C945B00F894FFCF84
:1000BA0049444C4500092563092575092575092513
:0500CA00750D0A0003A2
:0A00CF004C454430004C454431001C
:1000DA002F923F924F925F926F927F928F92AF923E
:1000EA00BF92CF92DF92EF920F931F93CF93DF933A
:1000FA001C013A01862E59012801C9010E94BC033C
:10010A008C01892B09F424C188E290E00E94BC0387
:10011A00EC01892BC9F088E2FE0111928A95E9F770
:10012A00188F0F8BA50165EA70E0C8010E94710C57
:10013A00F1E0AF1AB1088F89988DA80EB91E611423
:10014A007104810429F430C0C8010E94C90900C1A0
:10015A00F301849187FC8081898FF301849187FC64
:10016A008081882301F1AE01465E5F4FA82DC3014D
:10017A000196A11D28E0620E711C811C2A2FFC0128
:10018A007491A7FD7081FA017193AF01E82FF92FDD
:10019A000196A11D349127FD3081332321F0861564
:1001AA009705A80559F718A2F3E0FE1520F40F2EBB
:1001BA00F3E0EF2EF02DEE8A8E010E5F1F4FC8017D
:1001CA000E94910CCE010C960E94910CD987C88787
:1001DA0084E090E08E1991099D878C87DB8BCA8B0E
:1001EA00A201B101C5010E94CC0599838883C1147B
:1001FA00D10419F0F601D183C0830FB6F8940F9297
:10020A008091E0068F5F8093E0068091D8069091F6
:10021A00D906892BD1F5D093D906C093D8068091F7
:10022A00E006813009F041C08EE596E00E94190C83
:10023A0087E696E00E94190C80E796E00E94190C66
:10024A0089E796E00E94190C8FEA96E00E94190C41
:10025A0086EA96E00E94190C8DE996E00E94190C34
:10026A0084E996E00E94190C8BE896E00E94190C2A
:10027A008FEA96E09093D7068093D60686EA96E0B0
:10028A009093D5068093D40610C08091DE06811122
:10029A000CC0E091D806F091D90696898E89891703
:1002AA0020F0D093D906C093D8068091DB068F5FE1
:1002BA008093DB0689A38E899091DF06981710F444
:1002CA008093DF0690E0FC01EE0FFF1FEE0FFF1F89
:1002DA00EE0FFF1F8E0F9F1FFC01E25AF94F01809C
:1002EA00F281E02DFD83EC83848195819F838E8347
:1002FA00A481B58113961C930E93129715830483D8
:10030A00EE89F0E0CF01880F991F880F991F880F97
:10031A00991FE80FF91FE25AF94FFB87EA87808194
:10032A008F5F80830F900FBE8091DE06882361F075
:10033A00E091D806F091D90696898E89981730F4FB
:10034A000E94CB0781E005C081E003C081E001C0C3
:10035A008FEFDF91CF911F910F91EF90DF90CF90A8
:10036A00BF90AF908F907F906F905F904F903F902B
:04037A002F90089523
:10037E00EF92FF920F931F93CF93DF938091DA0644
:10038E00811104C1C091D206D091D3067E018FEFA8
:10039E00E81AF80AF092D306E092D206E114F104BC
:1003AE00B9F48091D6069091D7062091D40630915B
:1003BE00D5063093D7062093D6069093D506809314
:1003CE00D4068091DC068F5F8093DC060E94760B4C
:1003DE008091CE069091CF06E816F90610F480E0D3
:1003EE00B9C080E061E0E091D606F091D706908129
:1003FE00911107C02FEF3FEF3093CF062093CE061B
:10040E00A9C0E091D606F091D7060580F681E02DC1
:10041E000680F781E02D22813381E216F30628F45F
:10042E003093CF062093CE0695C0A285B385248146
:10043E00358146815781E9015D834C832681378161
:10044E0044815581E9015B834A83AF014E5F5F4F63
:10045E0011962D913C9112972417350731F4268170
:10046E00378112963C932E931197138612869C9188
:10047E0091509C93A489B589109719F126853785DB
:10048E0000891189E9011D830C8320893189068534
:10049E001785E9011B830A8311960D911C91129702
:1004AE009F01245F3F4F0217130731F420893189D2
:1004BE0012963C932E931197158A148A9C91915003
:1004CE009C9326899091DF06921710F42093DF06F5
:1004DE0030E0D901AA0FBB1FAA0FBB1FAA0FBB1F6B
:1004EE002A0F3B1FD901A25AB94F11960D90BC91FC
:1004FE00A02DB583A48314962D913C911597378327
:10050E00268314962D913C911597E9015B834A83BE
:10051E0015965C934E931497A689B0E09D01220F19
:10052E00331F220F331F220F331FA20FB31FA25AE6
:10053E00B94FB387A2879C919F5F9C93A091D806D9
:10054E00B091D906268956969C91921708F04BCFFA
:10055E00862F49CFE091D806F091D906268930E052
:10056E00F901EE0FFF1FEE0FFF1FEE0FFF1F2E0FF5
:10057E003F1FF901E25AF94F9081923008F081E065
:10058E009091DD06992361F081E00AC08091D0063A
:10059E009091D10601969093D1068093D00680E07B
:0E05AE00DF91CF911F910F91FF90EF90089574
:1005BC001F93CF93DF930FB6F8940F928091DA06C6
:1005CC0081508093DA068091DA068111C6C0809141
:1005DC00E00681119BC0C4C0DB011596ED91FC9126
:1005EC0016970680F781E02DA489B58986859785B5
:1005FC0020893189EC013D832C8380899189268562
:10060C003785EC013B832A83CF010C9611962D91F3
:10061C003C9112972817390731F4808991891296E9
:10062C009C938E931197158A148A8C9181508C937C
:10063C00A285B3858481958126813781EC013D8328
:10064C002C838681978124813581EC013B832A831D
:10065C009F012E5F3F4F11968D919C91129782179F
:10066C00930731F48681978112969C938E93119700
:10067C00138612868C9181508C9386899091DF061B
:10068C00981710F48093DF0690E0DC01AA0FBB1FD3
:10069C00AA0FBB1FAA0FBB1F8A0F9B1FDC01A25AFC
:1006AC00B94F11960D90BC91A02DB583A4831496CF
:1006BC008D919C9115979783868314968D919C911F
:1006CC001597EC013B832A8315963C932E93149734
:1006DC00A689B0E0CD01880F991F880F991F880F4C
:1006EC00991FA80FB91FA25AB94FB387A2878C9133
:1006FC008F5F8C93A091D806B091D90696895696A7
:10070C008C91981740F04093DD0605C0E0E0F0E0D6
:10071C006DE976E041E0DB018C9181115DCFEF2B2F
:10072C0011F00E94760BC091D006D091D106209783
:10073C0061F011E00E94BF0181111093DD06219739
:10074C00C9F71092D1061092D0068091DD0688234D
:10075C0031F00E94CB0781E003C080E001C080E053
:0C076C000F900FBEDF91CF911F910895F8
:10077800EF92FF920F931F93CF93DF93EC010E94A8
:10078800780C8091CA069091CB06892B11F5E8EB7D
:10079800F6E0A2E8B0E0B183A08313821282EAE512
:1007A800F6E0F093CB06E093CA0613821282118218
:1007B800108288ED95E013969C938E931297ED9393
:1007C800FC939093C7068093C6069093C9068093BE
:1007D800C806CE0101978A3F9F4F08F067C09E0167
:1007E8002B5F3F4FCB5FDF47C130D04808F461C073
:1007F8000091C8061091C9060217130708F45CC0D7
:10080800C091B806D091B906E8EBF6E002C0FE0147
:10081800EC018A819B818217930720F48881998152
:100828000097A9F78091CA069091CB06C817D907F7
:1008380009F445C0E080F18084E0E80EF11C88816D
:100848009981918380834A815B81421B530B493094
:10085800510550F0CE01820F931FFC015383428350
:100868003B832A830E9424088A819B81081B190BD9
:100878001093C9060093C8062091C6063091C70692
:100888000217130720F41093C7060093C606906852
:100898009B838A83198218828091C4069091C50629
:1008A80001969093C5068093C4060BC0E12CF12CE9
:1008B80008C0E12CF12C05C0E12CF12C02C0E12C80
:1008C800F12C0E94DE02C701DF91CF911F910F9199
:0608D800FF90EF9008956F
:1008DE00FF920F931F93CF93DF93EC01F62E0091AF
:1008EE00D2061091D3068091D8069091D906029621
:1008FE000E94890ACF3F8FEFD807B1F5FF20A1F1F3
:10090E00EBE8F6E0A181B281C091D806D091D9066C
:10091E00BD83AC83C091D806D091D90614968D9123
:10092E009C9115979F838E831496CD91DC9115978C
:10093E008091D8069091D90602969B838A838091E6
:10094E00D8069091D906029615969C938E9314977D
:10095E00A091D806B091D9061B96FC93EE931A97E8
:10096E0080818F5F80832FC0C00FD11FE091D8068A
:10097E00F091D906D383C283C017D10768F4609172
:10098E00D8067091D9068091D4069091D5066E5FE7
:10099E007F4F0E94FA0917C06091D8067091D90650
:1009AE008091D6069091D7066E5F7F4F0E94FA090E
:1009BE008091CE069091CF06C817D90720F4D09318
:1009CE00CF06C093CE06DF91CF911F910F91FF906E
:0209DE0008957A
:1009E000CF92DF92EF92A0E82091D8063091D906FD
:1009F00040E882179307A40709F44FC00FB6F89494
:100A00000F929C014A2F265F3F4F4F4FF901542F01
:100A10000E943F0C9B0140E8C090D606D090D706BC
:100A20006091D4067091D5060F900FBE50E8E52E68
:100A30002C153D054E0599F16B0150E8E52E2C155E
:100A40003D054E0571F16BE876E06B0150E8E52E4F
:100A50002C153D054E05A9F49C014A2F2C5E3F4FF5
:100A60004F4FF901542F0E943F0C672BE1F48796FA
:100A7000A11DFC018491A7FD80818130B1F083E04C
:100A800019C084E996E0A0E8281739074A0779F0E9
:100A9000232B242B71F081E00DC080E00BC082E09D
:100AA00009C082E007C082E005C082E003C084E0A4
:0C0AB00001C084E0EF90DF90CF9008952B
:100ABC00FF920F931F93CF93DF938C01EB01F42ED6
:100ACC00892B21F40091D8061091D906198308833B
:100ADC00C8014996A0E88A839B83AC83F801868978
:100AEC008F838789908D9E878D8781A18D831886B2
:100AFC0019861A861B861C862530C1F08091D80673
:100B0C009091D9060817190711F41E8213C02E8371
:100B1C00233081F40E94780CF80184899589892B03
:100B2C0011F082E08E830E94DE0204C0C8010E9494
:100B3C00F0048E83FF2011F1F8018789908DA0E8D5
:100B4C00FC012491A7FD2081253A91F40196A11D69
:100B5C0040E050E0BA014F5F5F4F6F4F7F4FFC0199
:100B6C002491A7FD20810196A11D253AA1F303C074
:100B7C0040E050E0BA01588B4F8702C0188A1F869C
:0C0B8C00DF91CF911F910F91FF90089511
:100B980031E1FC013083319722E220833197A3E3CE
:100BA800A083319760833197708331971082319792
:100BB80060E8608331971082319762E060833197F3
:100BC80063E06083319764E06083319765E0608318
:100BD800319766E06083319767E06083319768E01A
:100BE8006083319769E06083319760E16083319772
:100BF8003083319732E13083319733E13083319755
:100C080034E13083319735E13083319736E13083F1
:100C1800319737E13083319738E13083319739E1C3
:100C28003083319730E23083319731E23083319726
:100C38002083319723E22083319740833197508373
:100C4800319726E22083319727E22083319728E2E3
:100C58002083319729E22083319720E3208331973D
:080C680021E320838697089523
:100C70000FC00E945C0C38F00E94630C20F095239A
:100C800011F00C947E0C0C949F0C11240C946B0CA2
:100C90000E94D30A70F3959FC1F3950F50E0551F42
:100CA000629FF001729FBB27F00DB11D639FAA27C1
:100CB000F00DB11DAA1F649F6627B00DA11D661F10
:100CC000829F2227B00DA11D621F739FB00DA11D31
:100CD000621F839FA00D611D221F749F3327A00DEB
:100CE000611D231F849F600D211D822F762F6A2F87
:100CF00011249F5750409AF0F1F088234AF0EE0FEC
:100D0000FF1FBB1F661F771F881F91505040A9F718
:100D10009E3F510580F00C947E0C0C946B0C5F3F51
:100D2000E4F3983ED4F3869577956795B795F79554
:100D3000E7959F5FC1F7FE2B880F911D96958795CC
:040D400097F9089582
:100D440011C00E945C0C38F00E94630C20F039F44E
:100D54009F3F19F426F40C949F0C0EF4E095E7FBE6
:100D64000C947E0CE92F0E94D30A58F3BA17620739
:100D740073078407950720F079F4A6F50C946A0CA0
:100D84000EF4E0950B2EBA2FA02D0B01B9019001A2
:100D94000C01CA01A0011124FF27591B99F0593FE6
:100DA40050F4503E68F11A16F040A22F232F342F2E
:100DB4004427585FF3CF469537952795A795F0407C
:100DC4005395C9F77EF41F16BA0B620B730B840B91
:100DD400BAF09150A1F0FF0FBB1F661F771F881F49
:100DE400C2F70EC0BA0F621F731F841F48F48795A1
:100DF40077956795B795F7959E3F08F0B0CF939593
:0E0E0400880F08F09927EE0F979587950895AF
:100E12008091DA06882321F081E08093DD0608952F
:100E22001092DD062091DF06822F90E0FC01EE0F8A
:100E3200FF1FEE0FFF1FEE0FFF1FE80FF91FE25A11
:100E4200F94F3081311111C02150822F90E0FC0105
:100E5200EE0FFF1FEE0FFF1FEE0FFF1FE80FF91F30
:100E6200E25AF94F3081332379F3AC01440F551F15
:100E7200440F551F440F551F480F591FDA01A25A3C
:100E8200B94F1196ED91FC9112970280F381E02DFA
:100E92001296FC93EE9311974F59594FE417F507A9
:100EA20029F442815381FD0152834183FC01EE0FFB
:100EB200FF1FEE0FFF1FEE0FFF1F8E0F9F1FFC0184
:100EC200E25AF94F0180F281E02D86819781909359
:0C0ED200D9068093D8062093DF0608950F
:100EDE000F920FB6F8940F921F9211242F923F92F9
:100EEE004F925F926F927F928F929F92AF92BF922C
:100EFE00CF92DF92EF92FF920F931F932F933F9318
:100F0E004F935F936F937F938F939F93AF93BF9303
:100F1E00CF93DF93EF93FF93A091D806B091D906AC
:100F2E000DB60D920EB60D920E94BF0181110E9458
:100F3E000907A091D806B091D906CD91CDBFDD910C
:100F4E00DEBFFF91EF91DF91CF91BF91AF919F9156
:100F5E008F917F916F915F914F913F912F911F9143
:100F6E000F91FF90EF90DF90CF90BF90AF909F903A
:100F7E008F907F906F905F904F903F902F901F902B
:080F8E000F900FBE0F900895B3
:100F96000F920FB6F8940F921F9211242F923F9240
:100FA6004F925F926F927F928F929F92AF92BF9273
:100FB600CF92DF92EF92FF920F931F932F933F935F
:100FC6004F935F936F937F938F939F93AF93BF934B
:100FD600CF93DF93EF93FF93A091D806B091D906F4
:100FE6000DB60D920EB60D920E940907A091D80675
:100FF600B091D906CD91CDBFDD91DEBFFF91EF91C6
:10100600DF91CF91BF91AF919F918F917F916F911A
:101016005F914F913F912F911F910F91FF90EF900C
:10102600DF90CF90BF90AF909F908F907F906F9002
:101036005F904F903F902F901F900F900FBE0F9094
:0210460008950B
:10104800CF93DF93DC01E8EBF6E001C0F9012081E2
:1010580031812A173B07D0F382819381AF01480F72
:10106800591FA417B50749F412964D915C9113972F
:10107800840F951F93838283DF0112968D919C9133
:101088001397ED01C80FD91F2C173D07D9F42091EC
:10109800CA063091CB06C217D30781F02A813B815B
:1010A800820F931F13969C938E931297C081D181C0
:1010B8008881998111969C938E9307C01196DC9331
:1010C800CE9303C011963C932E93AE17BF0711F031
:0A10D800B183A083DF91CF9108954A
:1010E20084EF91E00E94C20B0E94A60C0E94990C10
:1010F2000E94840CBC01990F880B990B0E94BC08BA
:101102002AE137E64CE950E40E94950C0E94550C06
:101112007093BD066093BC0682E896E00E940A0CBA
:1011220025E041E061E770E08091C0069091C10640
:101132000E945E0525E041E060E670E08091BE0617
:101142009091BF060E945E058091770090E00E9418
:10115200590B8CE20E948D0C8091660090E00E94F7
:10116200590B8DE00E948D0C85E090E00E94C20B2D
:02117200BBCFF1
:10117400E89409C097FB3EF490958095709561952D
:101184007F4F8F4F9F4F9923A9F0F92F96E9BB27E3
:101194009395F695879577956795B795F111F8CF5F
:1011A400FAF4BB0F11F460FF1BC06F5F7F4F8F4FCA
:1011B4009F4F16C0882311F096E911C0772321F0C0
:1011C4009EE8872F762F05C0662371F096E8862F58
:1011D40070E060E02AF09A95660F771F881FDAF7AF
:0A11E400880F9695879597F90895F6
:1011EE0004E916E00F2EFEE5EF2EF6E0FF2EF02DB1
:1011FE008091E106882329F10FB6F8940F92D80159
:10120E001596ED91FC911697C681D781CE01029667
:10121E000E94890A8091E00681508093E0068091B9
:10122E00E10681508093E1060F900FBE8F89988D55
:10123E000E94C909CE010E94C9098091E10681115F
:10124E00DBCFF7018081823098F20E94CB07D0CF9E
:10125E001BBC89EF8ABD8BE08EBD89B7806189BFCB
:10126E00A091D806B091D906CD91CDBFDD91DEBF4C
:10127E00FF91EF91DF91CF91BF91AF919F918F91A0
:10128E007F916F915F914F913F912F911F910F9190
:10129E00FF90EF90DF90CF90BF90AF909F908F9088
:1012AE007F906F905F904F903F902F901F900F9078
:0A12BE000FBE0F90089581E008951F
:1012C8000E94D60B80E895E20E94B00A47E050E001
:1012D80061E070E080E090E00E94AC0B0F2EF0EC33
:1012E800CF2EF6E0DF2EF02DEE24E39400E010E0A0
:1012F80028EC30E04FEC50E060E081E798E00E9495
:101308006D000F2EFEEBCF2EF6E0DF2EF02D28EC31
:1013180030E044ED50E060E087E999E00E946D001C
:061328000E942B0AFFCF1A
:10132E008091BC069091BD060E94590B8DE00E94E3
:10133E008D0C25E041E061E770E08091C006909150
:10134E00C1060E945E0525E041E060E670E08091F6
:10135E00BE069091BF060E945E058091770090E0D8
:10136E000E94590B8CE20E948D0C8091660090E0D9
:10137E000E94590B8DE00E948D0C85E090E00E943A
:04138E00C20BCECFF1
:10139200CF93DF93009751F1FC013497228133817F
:1013A200332324F540815181452B01F5EF013F772D
:1013B200338322830E94780C2091C8063091C9069B
:1013C2008A819B81820F931F9093C9068093C806DE
:1013D200CE010E9424088091C2069091C306019614
:1013E2009093C3068093C2060E94DE02DF91CF91E2
:0213F20008955C
:1013F400CF93DF93EB01488159814F3F2FEF520781
:1014040021F4FC01A781B0850DC0DC01139601C055
:10141400DF011296ED91FC911397208131814217DF
:101424005307B0F71296ED91FC911397FB83EA836F
:10143400D583C483BD83AC831396DC93CE93129778
:1014440099878887FC0120812F5F2083DF91CF91CA
:021454000895F9
:10145600CF92DF92EF920F931F930F2EFCECCF2EBD
:10146600F6E0DF2EF02DE12C00E010E025E530E07F
:101476004AEB50E060E087EF98E00E946D00813013
:1014860081F4F8948FEF9FEF9093CF068093CE066A
:1014960081E08093DE061092D3061092D2060E9457
:0E14A6002F091F910F91EF90DF90CF900895C6
:1014B4000E94DB0A88F09F5798F0B92F9927B751FB
:1014C400B0F0E1F0660F771F881F991F1AF0BA95E4
:1014D400C9F714C0B13091F00E946A0CB1E00895CC
:1014E4000C946A0C672F782F8827B85F39F0B93FBE
:1014F400CCF3869577956795B395D9F73EF4909597
:0E1504008095709561957F4F8F4F9F4F089592
:10151200CF93DF93FC01A085B185C281D381848101
:1015220095819D838C83C481D581828193819B83A4
:101532008A8311968D919C911297E817F90731F4DD
:101542008481958112969C938E93119711861086B1
:0E1552008C9181508C938C91DF91CF910895F4
:101560009C01990F440B550B60E074E284EF90E00E
:101570000E94F50ACA01B9010E94BA0820E030E0D1
:1015800040E85DE30E94950C20E030E040E85FE336
:101590000E944E0C0E94550C69B970BD8AB18861D9
:0615A0008AB9579A089574
:1015A60057FD9058440F551F59F05F3F71F047950E
:1015B600880F97FB991F61F09F3F79F087950895F3
:1015C600121613061406551FF2CF4695F1DF08C012
:1015D600161617061806991FF1CF8695710561052F
:0415E60008940895C8
:1015EA00A1E21A2EAA1BBB1BFD010DC0AA1FBB1F1D
:1015FA00EE1FFF1FA217B307E407F50720F0A21B8F
:10160A00B30BE40BF50B661F771F881F991F1A94FB
:10161A0069F760957095809590959B01AC01BD0125
:04162A00CF0108954F
:10162E006115710581F061307105D1F444B321E08B
:10163E0030E0B90102C0660F771F8A95E2F7CB0141
:10164E00842B84BB089544B321E030E0B90102C07D
:10165E00660F771F8A95E2F7CB018095842384BBB2
:02166E000895DD
:101670006115710581F061307105D1F441B321E04C
:1016800030E0B90102C0660F771F8A95E2F7CB01FF
:10169000842B81BB089541B321E030E0B90102C041
:1016A000660F771F8A95E2F7CB018095842381BB73
:0216B00008959B
:1016B200CF93DF93CDB7DEB72B970FB6F894DEBF8B
:1016C2000FBECDBF4AE0BE016F5F7F4F0E94340C58
:1016D200CE0101960E940A0C2B960FB6F894DEBF3B
:0A16E2000FBECDBFDF91CF91089538
:1016EC00E091D606F091D7068081811107C08FEF6B
:1016FC009FEF9093CF068093CE060895E091D60687
:10170C00F091D7060580F681E02D80819181909330
:08171C00CF068093CE0608956C
:10172400BB27FB015527AA27880F991FAA1FA417B7
:1017340010F0A41B83955051B9F7A05DAA3308F0AB
:10174400A95DA193009779F7B111B1931192CB01DF
:041754000C94FA0BEC
:101758000F931F93CF93DF938C01CB01EA010E9473
:10176800270CC8010E94470CCE010E94890C0E94D8
:0C177800A40CDF91CF911F910F910895F8
:10178400CF93DF93EC01892B51F00E94780C60E039
:10179400CE010E946F040E94DE02811102C00E94E9
:0817A400CB07DF91CF910895FE
:1017AC0061E070E082E090E00E94170B61E070E075
:1017BC0087E090E00E94170B61E070E083E090E01E
:0617CC000E94380B089595
:1017D200092E0394000C11F4882352F0BB0F40F43D
:1017E200BF2B11F460FF04C06F5F7F4F8F4F9F4F7D
:0217F200089558
:1017F400DC01FC01672F71917723E1F7329704C074
:101804007C916D9370836291AE17BF07C8F30895FE
:10181400CF93DF93EC018881882331F021960E94D5
:0E1824008D0C89918111FBCFDF91CF9108953A
:10183200FC010396928381832FEF3FEF348323834E
:0C18420096838583908787831082089529
:10184E0027B10024969587950794969587950794CA
:0A185E00982F802D822B87B9089582
:10186800BB274A3031F4992322F4BDE29095819543
:061878009F4F0C94930B3E
:10187E0057FD03C065917591089561917191089519
:0E188E0097B1907E97B997B1892B87B90895CD
:0E189C005058BB27AA270E94A2060C94E90B05
:0E18AA000E945A0A6894B1110C946B0C0895B8
:0E18B80000240A94161617061806090608954D
:0E18C60000240A94121613061406050608954F
:0E18D400E894BB2766277727CB0197F9089584
:0E18E200DC0101C06D9341505040E0F70895C5
:0C18F0008091DA068F5F8093DA0608957D
:0C18FC0097F99F6780E870E060E00895B5
:0A19080084B125B190E0922B089500
:0819120096B1892B86B90895F6
:08191A005D9BFECF8CB908951E
:08192200FC01118610860895F6
:08192A000E9438060C94E90B41
:06193200349BFECF089576
:061938000E946F071895E4
:06193E009FEF80EC08950C
:041944000C940000FF
:04194800379A08952D
:04194C00369A08952A
:091950005461736B20313A200050
:00000001FF
