:100000000C942A000C94D4000C94D4000C94D400CA
:100010000C94D4000C94D4000C94D4000C94D40010
:100020000C94D4000C94D4000C94D4000C94D40000
:100030000C94D4000C94D4000C94D4000C94D400F0
:100040000C94D4000C94D4000C94D4000C94D400E0
:100050000C94D40011241FBECFE5D8E0DEBFCDBF85
:10006000E4E5F0E040E017C0B591A5913591259108
:10007000059107FD0CC095918591EF01F92FE82FAF
:1000800005900D92A217B307D9F7FE0104C01D9287
:10009000A217B307E1F7E435F40731F70E94CE0069
:0800A0000C945200F894FFCF0C
:1000A8008AB3806F8ABB87B38E6087BBC2988FE99B
:1000B8009FE00197F1F700C000000E94BB0082E0BA
:1000C8000E948B008FE39FE10197F1F700C00000C9
:1000D80086E00E948B008FE39FE10197F1F700C053
:1000E80000008EE00E948B008FE39FE10197F1F7FB
:1000F80000C000008CE20E948B009FEF20E782E0A6
:0E010800915020408040E1F700C000000895B3
:10011600CF93C82FC1988BB38F709C2F907F892B5C
:100126008BBB0E94C5008BB3282F2F7030E1C39F75
:10013600C0011124822B8BBB0E94C500CF9108956C
:10014600CF93C82FC19A8BB38F709C2F907F892B2A
:100156008BBB0E94C5008BB3282F2F7030E1C39F45
:10016600C0011124822B8BBB0E94C500CF9108953C
:1001760081E00E948B008FE79EE30197F1F700C0B4
:0401860000000895D8
:10018A00C39A87EC90E00197F1F700C00000C3988A
:02019A000895C6
:0C019C000E94540081E40E94A300FFCFE9
:0401A8000C940000B3
:00000001FF
