:100000000C942A000C94F0000C94F0000C94F00076
:100010000C94F0000C94F0000C94F0000C94F000A0
:100020000C94F0000C94F0000C94F0000C94F00090
:100030000C94F0000C94F0000C94F0000C94F00080
:100040000C94F0000C94F0000C94F0000C94F00070
:100050000C94F00011241FBECFE5D8E0DEBFCDBF69
:0C0060000E94CD000C943400F894FFCFF7
:10006C0087E082BB80B3807F803249F118F4803105
:10007C0041F07BC0803409F440C0803809F459C089
:10008C0074C082B3887F82BB8FE39CE90197F1F740
:10009C0000C00000909A80B3807F09F068C082B3E2
:1000AC00887F82BB8FE39CE90197F1F700C00000C9
:1000BC00919A80B3807F09F05CC081E0089582B38F
:1000CC00887F82BB8FE39CE90197F1F700C00000A9
:1000DC00909A80B3807F09F04EC082B3887F82BB38
:1000EC008FE39CE90197F1F700C00000919A80B36F
:1000FC00807F09F042C084E0089582B3887F82BB80
:10010C008FE39CE90197F1F700C00000909A80B34F
:10011C00807FA9F582B3887F82BB8FE39CE901972E
:10012C00F1F700C00000919A80B3807F51F587E011
:10013C00089582B3887F82BB8FE39CE90197F1F726
:10014C0000C00000909A80B3807FE9F482B3887F6E
:10015C0082BB8FE39CE90197F1F700C00000919AF4
:10016C0080B3807F91F48AE208958FEF089583E045
:10017C00089582E0089586E0089585E0089589E069
:0E018C00089588E0089583E2089580E00895C4
:10019A000E94EB0081E090E00E94E2000E9436009B
:1001AA0090E00E94F2002FEF83EC99E0215080400A
:0A01BA009040E1F700C00000F1CF13
:1001C400009729F0019721F48FEF87BB089517BAA0
:0201D40008958C
:0A01D6008FE081BB87E082BB089533
:0401E0000C9400007B
:0401E40088BB089537
:00000001FF
