:100000000C942A000C94C8010C94C8010C94C801EB
:100010000C94C8010C94C8010C94C8010C94C8013C
:100020000C94C8010C94C8010C94C8010C94C8012C
:100030000C94C8010C94C8010C94C8010C94C8011C
:100040000C94C8010C94C8010C94C8010C94C8010C
:100050000C94C80111241FBECFE5D8E0DEBFCDBF90
:0C0060000E941D010C943400F894FFCFA6
:10006C006115710581F061307105D1F44AB321E05D
:10007C0030E0B90102C0660F771F8A95E2F7CB0119
:10008C00842B8ABB08954AB321E030E0B90102C049
:10009C00660F771F8A95E2F7CB01809584238ABB84
:0200AC000895B5
:1000AE006115710581F061307105D1F44BB321E01A
:1000BE0030E0B90102C0660F771F8A95E2F7CB01D7
:1000CE00842B8BBB08954BB321E030E0B90102C005
:1000DE00660F771F8A95E2F7CB01809584238BBB41
:0200EE00089573
:1000F0006115710581F061307105D1F447B321E0DC
:1001000030E0B90102C0660F771F8A95E2F7CB0194
:10011000842B87BB089547B321E030E0B90102C0CA
:10012000660F771F8A95E2F7CB018095842387BB02
:02013000089530
:100132006115710581F061307105D1F444B321E09C
:1001420030E0B90102C0660F771F8A95E2F7CB0152
:10015200842B84BB089544B321E030E0B90102C08E
:10016200660F771F8A95E2F7CB018095842384BBC3
:020172000895EE
:100174006115710581F061307105D1F445B321E059
:1001840030E0B90102C0660F771F8A95E2F7CB0110
:10019400842B85BB089545B321E030E0B90102C04A
:1001A400660F771F8A95E2F7CB018095842385BB80
:0201B4000895AC
:1001B6006115710581F061307105D1F441B321E01B
:1001C60030E0B90102C0660F771F8A95E2F7CB01CE
:1001D600842B81BB089541B321E030E0B90102C010
:1001E600660F771F8A95E2F7CB018095842381BB42
:0201F60008956A
:1001F8006115710581F061307105D1F442B321E0D8
:1002080030E0B90102C0660F771F8A95E2F7CB018B
:10021800842B82BB089542B321E030E0B90102C0CB
:10022800660F771F8A95E2F7CB018095842382BBFE
:02023800089527
:10023A000E943A010E94B3010E944D0180E00E948F
:10024A006001882349F00E9489010E9497010E9457
:10025A00A5010E94BA01F2CF0E9490010E949E015C
:0A026A000E94AC010E94C101E9CF1F
:1002740061E070E082E090E00E94990061E070E04B
:1002840087E090E00E94990061E070E083E090E0F4
:060294000E94DB0008954A
:10029A0060E070E080E090E00E94780060E070E04A
:1002AA0086E090E00E94DB0060E070E082E090E08F
:0602BA000E94DB00089524
:1002C000823049F0863039F0811109C080E090E039
:1002D0000E947101089590E00E947D0108958FEFC2
:0202E00008957F
:1002E20026B330E0A90102C0559547958A95E2F7F9
:0802F200CA01817099270895EB
:1002FA0020B330E0A90102C0559547958A95E2F7E7
:08030A00CA01817099270895D2
:0E03120061E070E082E090E00E94BA00089581
:0E03200060E070E082E090E00E94BA00089574
:0E032E0061E070E087E090E00E94BA00089560
:0E033C0060E070E087E090E00E94BA00089553
:0E034A0061E070E083E090E00E94FC00089506
:0E03580060E070E083E090E00E94FC000895F9
:0E03660061E070E082E090E00E9436000895B1
:0E03740061E070E082E090E00E945700089582
:0E03820060E070E082E090E00E945700089575
:040390000C940000C9
:00000001FF
