:100000000C942D000C94D1030C94D1030C94D103C7
:100010000C94D1030C94D1030C94D1030C94CE0313
:100020000C94D1030C94D1030C94D1030C94D10300
:100030000C94D1030C94D1030C94D1030C94D103F0
:100040000C94D1030C94D1030C94D1030C94D103E0
:100050000C94D10300600094800011241FBECFE5F2
:10006000D8E0DEBFCDBFE4E5F0E040E017C0B591D9
:10007000A59135912591059107FD0CC0959185912C
:10008000EF01F92FE82F05900D92A217B307D9F7CA
:10009000FE0104C01D92A217B307E1F7E935F4078A
:0E00A00031F70E9438020C945500F894FFCFFF
:1000AE00EF92FF920F931F93CF93DF938091900067
:1000BE00811104C1C0918800D09189007E018FEF1B
:1000CE00E81AF80AF0928900E0928800E114F1042F
:1000DE00B9F480918C0090918D0020918A0030911E
:1000EE008B0030938D0020938C0090938B00809327
:1000FE008A00809191008F5F809391000E9421036E
:10010E008091840090918500E816F90610F480E045
:10011E00B9C080E061E0E0918C00F0918D0090819B
:10012E00911107C02FEF3FEF30938500209384008D
:10013E00A9C0E0918C00F0918D000580F681E02D34
:10014E000680F781E02D22813381E216F30628F432
:10015E00309385002093840095C0A285B3852481B9
:10016E00358146815781E9015D834C832681378134
:10017E0044815581E9015B834A83AF014E5F5F4F36
:10018E0011962D913C9112972417350731F4268143
:10019E00378112963C932E931197138612869C915B
:1001AE0091509C93A489B589109719F126853785AE
:1001BE0000891189E9011D830C8320893189068507
:1001CE001785E9011B830A8311960D911C911297D5
:1001DE009F01245F3F4F0217130731F420893189A5
:1001EE0012963C932E931197158A148A9C919150D6
:1001FE009C93268990919300921710F4209393006C
:10020E0030E0D901AA0FBB1FAA0FBB1FAA0FBB1F3D
:10021E002A0F3B1FD901A05ABF4F11960D90BC91CA
:10022E00A02DB583A48314962D913C9115973783F9
:10023E00268314962D913C911597E9015B834A8391
:10024E0015965C934E931497A689B0E09D01220FEC
:10025E00331F220F331F220F331FA20FB31FA05ABB
:10026E00BF4FB387A2879C919F5F9C93A0918E00F6
:10027E00B0918F00268956969C91921708F04BCF1D
:10028E00862F49CFE0918E00F0918F00268930E0C5
:10029E00F901EE0FFF1FEE0FFF1FEE0FFF1F2E0FC8
:1002AE003F1FF901E05AFF4F9081923008F081E034
:1002BE0090919200992361F081E00AC080918600AE
:1002CE00909187000196909387008093860080E03E
:0E02DE00DF91CF911F910F91FF90EF90089547
:1002EC0080919000882321F081E080939200089502
:1002FC001092920020919300822F90E0FC01EE0F5F
:10030C00FF1FEE0FFF1FEE0FFF1FE80FF91FE05A44
:10031C00FF4F3081311111C02150822F90E0FC0130
:10032C00EE0FFF1FEE0FFF1FEE0FFF1FE80FF91F61
:10033C00E05AFF4F3081332379F3AC01440F551F42
:10034C00440F551F440F551F480F591FDA01A05A6F
:10035C00BF4F1196ED91FC9112970280F381E02D25
:10036C001296FC93EE9311974D595F4FE417F507D6
:10037C0029F442815381FD0152834183FC01EE0F2C
:10038C00FF1FEE0FFF1FEE0FFF1F8E0F9F1FFC01B5
:10039C00E05AFF4F0180F281E02D86819781909386
:0C03AC008F0080938E0020939300089532
:1003B8000F920FB6F8940F921F9211242F923F922A
:1003C8004F925F926F927F928F929F92AF92BF925D
:1003D800CF92DF92EF92FF920F931F932F933F9349
:1003E8004F935F936F937F938F939F93AF93BF9335
:1003F800CF93DF93EF93FF93A0918E00B0918F007E
:100408000DB60D920EB60D920E94570081110E94F2
:100418007601A0918E00B0918F00CD91CDBFDD9176
:10042800DEBFFF91EF91DF91CF91BF91AF919F9187
:100438008F917F916F915F914F913F912F911F9174
:100448000F91FF90EF90DF90CF90BF90AF909F906B
:100458008F907F906F905F904F903F902F901F905C
:080468000F900FBE0F900895E4
:100470000E943D030E9450032FEF80E792E021503D
:1004800080409040E1F700C0000087E090E00E94CB
:10049000C703C82F80E00E946303882391F0CF5FD9
:1004A000C33009F4C0E06C2F87E090E00E94740331
:1004B0002FEF83EC99E0215080409040E1F700C09D
:1004C0000000C13059F018F0C23079F0E3CF0E943B
:1004D0009D030E94B2030E94C003DCCF0E94AB03C5
:1004E0000E94A4030E94C003D5CF0E94B9030E94BA
:0804F000B2030E94A403CECF69
:1004F8006115710581F061307105D1F447B321E0D0
:1005080030E0B90102C0660F771F8A95E2F7CB0188
:10051800842B87BB089547B321E030E0B90102C0BE
:10052800660F771F8A95E2F7CB018095842387BBF6
:02053800089524
:10053A006115710581F061307105D1F444B321E090
:10054A0030E0B90102C0660F771F8A95E2F7CB0146
:10055A00842B84BB089544B321E030E0B90102C082
:10056A00660F771F8A95E2F7CB018095842384BBB7
:02057A000895E2
:10057C006115710581F061307105D1F445B321E04D
:10058C0030E0B90102C0660F771F8A95E2F7CB0104
:10059C00842B85BB089545B321E030E0B90102C03E
:1005AC00660F771F8A95E2F7CB018095842385BB74
:0205BC000895A0
:1005BE006115710581F061307105D1F441B321E00F
:1005CE0030E0B90102C0660F771F8A95E2F7CB01C2
:1005DE00842B81BB089541B321E030E0B90102C004
:1005EE00660F771F8A95E2F7CB018095842381BB36
:0205FE0008955E
:100600006115710581F061307105D1F442B321E0CB
:1006100030E0B90102C0660F771F8A95E2F7CB017F
:10062000842B82BB089542B321E030E0B90102C0BF
:10063000660F771F8A95E2F7CB018095842382BBF2
:0206400008951B
:10064200E0918C00F0918D008081811107C08FEFC5
:100652009FEF90938500809384000895E0918C0031
:10066200F0918D000580F681E02D8081918190933B
:080672008500809384000895C7
:10067A0061E070E082E090E00E949D0261E070E03B
:10068A0087E090E00E949D0261E070E083E090E0E4
:06069A000E94DF0208953A
:1006A00060E070E080E090E00E947C0260E070E03A
:1006B00086E090E00E94DF0260E070E082E090E07F
:0606C0000E94DF02089514
:1006C600823049F0863039F0811109C080E090E02F
:1006D6000E948503089590E00E94910308958FEF8C
:0206E600089575
:1006E800E199FECF8EBB9FBB6DBBE29AE19A2FEFDB
:1006F80080E792E0215080409040E1F700C0000080
:02070800089552
:10070A0026B330E0A90102C0559547958A95E2F7CC
:08071A00CA01817099270895BE
:1007220020B330E0A90102C0559547958A95E2F7BA
:08073200CA01817099270895A6
:0E073A0061E070E082E090E00E94BE0208954F
:0E07480060E070E082E090E00E94BE02089542
:0E07560061E070E087E090E00E94BE0208952E
:0E07640060E070E087E090E00E94BE02089521
:0E07720061E070E083E090E00E9400030895D3
:0E07800060E070E083E090E00E9400030895C6
:0E078E00E199FECF8EBB9FBBE09A8DB308951C
:06079C000E94DC0118952B
:0407A2000C940000B3
:00000001FF
