:100000000C942D000C94C00F0C94C00F0C94C00FD6
:100010000C94C00F0C94C00F0C94C00F0C94BA0F2A
:100020000C94C00F0C94C00F0C94C00F0C94C00F14
:100030000C94C00F0C94C00F0C94C00F0C94C00F04
:100040000C94C00F0C94C00F0C94C00F0C94C00FF4
:100050000C94C00F006006DB800011241FBECFE5AA
:10006000D8E0DEBFCDBFE4E5F0E040E017C0B591D9
:10007000A59135912591059107FD0CC0959185912C
:10008000EF01F92FE82F05900D92A217B307D9F7CA
:10009000FE0104C01D92A217B307E1F7E935F4078A
:0E00A00031F70E943E0B0C945500F894FFCFF0
:1000AE0049444C450009256309257509257509251F
:0500BE00750D0A0003AE
:0A00C3004C454430004C4544310028
:1000CE002F923F924F925F926F927F928F92AF924A
:1000DE00BF92CF92DF92EF920F931F93CF93DF9346
:1000EE001C013A01862E59012801C9010E943D05C5
:1000FE008C01892B09F424C188E290E00E943D0511
:10010E00EC01892BC9F088E2FE0111928A95E9F77C
:10011E00188F0F8BA50165EA70E0C8010E948B0F46
:10012E00F1E0AF1AB1088F89988DA80EB91E61142F
:10013E007104810429F430C0C8010E94200C00C152
:10014E00F301849187FC8081898FF301849187FC70
:10015E008081882301F1AE01465E5F4FA82DC30159
:10016E000196A11D28E0620E711C811C2A2FFC0134
:10017E007491A7FD7081FA017193AF01E82FF92FE9
:10018E000196A11D349127FD3081332321F0861570
:10019E009705A80559F718A2F3E0FE1520F40F2EC7
:1001AE00F3E0EF2EF02DEE8A8E010E5F1F4FC80189
:1001BE000E94AB0FCE010C960E94AB0FD987C88759
:1001CE0084E090E08E1991099D878C87DB8BCA8B1A
:1001DE00A201B101C5010E94170799838883C1143A
:1001EE00D10419F0F601D183C0830FB6F8940F92A3
:1001FE008091D9068F5F8093D9068091D106909118
:10020E00D206892BD1F5D093D206C093D106809118
:10021E00D906813009F041C080E696E00E94280F91
:10022E0089E696E00E94280F82E796E00E94280F4A
:10023E008BE796E00E94280F88EA96E00E94280F2E
:10024E008FE996E00E94280F86E996E00E94280F1B
:10025E008DE896E00E94280F84E896E00E94280F11
:10026E0088EA96E09093D0068093CF068FE996E0C9
:10027E009093CE068093CD0610C08091D706811143
:10028E000CC0E091D106F091D20696898E8989171D
:10029E0020F0D093D206C093D1068091D4068F5F02
:1002AE008093D40689A38E899091D806981710F45E
:1002BE008093D80690E0FC01EE0FFF1FEE0FFF1F9C
:1002CE00EE0FFF1F8E0F9F1FFC01E05AF94F0180AA
:1002DE00F281E02DFD83EC83848195819F838E8353
:1002EE00A481B58113961C930E93129715830483E4
:1002FE00EE89F0E0CF01880F991F880F991F880FA4
:10030E00991FE80FF91FE05AF94FFB87EA878081A2
:10031E008F5F80830F900FBE8091D706882361F088
:10032E00E091D106F091D20696898E89981730F415
:10033E000E947A0981E005C081E003C081E001C01E
:10034E008FEFDF91CF911F910F91EF90DF90CF90B4
:10035E00BF90AF908F907F906F905F904F903F9037
:04036E002F9008952F
:10037200EF92FF920F931F93CF93DF938091D30657
:10038200811104C1C091CB06D091CC067E018FEFC2
:10039200E81AF80AF092CC06E092CB06E114F104D6
:1003A200B9F48091CF069091D0062091CD0630917C
:1003B200CE063093D0062093CF069093CE0680933C
:1003C200CD068091D5068F5F8093D5060E941A0EC6
:1003D2008091C7069091C806E816F90610F480E0ED
:1003E200B9C080E061E0E091CF06F091D006908143
:1003F200911107C02FEF3FEF3093C8062093C70635
:10040200A9C0E091CF06F091D0060580F681E02DDB
:100412000680F781E02D22813381E216F30628F46B
:100422003093C8062093C70695C0A285B385248160
:10043200358146815781E9015D834C83268137816D
:1004420044815581E9015B834A83AF014E5F5F4F6F
:1004520011962D913C9112972417350731F426817C
:10046200378112963C932E931197138612869C9194
:1004720091509C93A489B589109719F126853785E7
:1004820000891189E9011D830C8320893189068540
:100492001785E9011B830A8311960D911C9112970E
:1004A2009F01245F3F4F0217130731F420893189DE
:1004B20012963C932E931197158A148A9C9191500F
:1004C2009C9326899091D806921710F42093D8060F
:1004D20030E0D901AA0FBB1FAA0FBB1FAA0FBB1F77
:1004E2002A0F3B1FD901A05AB94F11960D90BC910A
:1004F200A02DB583A48314962D913C911597378333
:10050200268314962D913C911597E9015B834A83CA
:1005120015965C934E931497A689B0E09D01220F25
:10052200331F220F331F220F331FA20FB31FA05AF4
:10053200B94FB387A2879C919F5F9C93A091D106EC
:10054200B091D206268956969C91921708F04BCF0D
:10055200862F49CFE091D106F091D206268930E06C
:10056200F901EE0FFF1FEE0FFF1FEE0FFF1F2E0F01
:100572003F1FF901E05AF94F9081923008F081E073
:100582009091D606992361F081E00AC08091C90654
:100592009091CA0601969093CA068093C90680E09C
:0E05A200DF91CF911F910F91FF90EF90089580
:1005B0001F93CF93DF930FB6F8940F928091D306D9
:1005C00081508093D3068091D3068111C6C080915B
:1005D000D90681119BC0C4C0DB011596ED91FC9139
:1005E00016970680F781E02DA489B58986859785C1
:1005F00020893189EC013D832C838089918926856E
:100600003785EC013B832A83CF010C9611962D91FF
:100610003C9112972817390731F4808991891296F5
:100620009C938E931197158A148A8C9181508C9388
:10063000A285B3858481958126813781EC013D8334
:100640002C838681978124813581EC013B832A8329
:100650009F012E5F3F4F11968D919C9112978217AB
:10066000930731F48681978112969C938E9311970C
:10067000138612868C9181508C9386899091D8062E
:10068000981710F48093D80690E0DC01AA0FBB1FE6
:10069000AA0FBB1FAA0FBB1F8A0F9B1FDC01A05A0A
:1006A000B94F11960D90BC91A02DB583A4831496DB
:1006B0008D919C9115979783868314968D919C912B
:1006C0001597EC013B832A8315963C932E93149740
:1006D000A689B0E0CD01880F991F880F991F880F58
:1006E000991FA80FB91FA05AB94FB387A2878C9141
:1006F0008F5F8C93A091D106B091D20696895696C1
:100700008C91981740F04093D60605C0E0E0F0E0E9
:1007100066E976E041E0DB018C9181115DCFEF2B42
:1007200011F00E941A0EC091C906D091CA062097F6
:1007300061F011E00E94B90181111093D606219752
:10074000C9F71092CA061092C9068091D60688236E
:1007500031F00E947A0981E003C080E001C080E0AE
:0C0760000F900FBEDF91CF911F91089504
:10076C002F923F924F926F927F928F92BF92CF9225
:10077C00DF92EF92FF920F931F93CF93DF93CDB73E
:10078C00DEB728970FB6F894DEBF0FBECDBF7C0145
:10079C004E835F8368873D832C8310E0BB24B39426
:1007AC003C0180E8882E1301482CEAE12E0E311C06
:1007BC00411CFBE16F0E711C811C670188E0C80EA7
:1007CC00D11C0FB6F8940F92F701928D838D981768
:1007DC0010F00230F1F4202F4E815F816885C70143
:1007EC000E94750AF7019189992361F0F1E1EF0EEE
:1007FC00F11CB70180E80E947A04882331F00E9432
:10080C007A0903C081110E947A090F900FBE81E012
:10081C0055C08C819D81892B21F40F900FBE80E0F7
:10082C004DC0111105C0CE0101960E94430F1B2D26
:10083C000F900FBE0E94920F0FB6F8940F92F70113
:10084C00858D8F3F09F4158EF701868D8F3F09F446
:10085C00168E0F900FBEBE016C5F7F4FCE010196BE
:10086C000E947A0B811124C00FB6F8940F92F101FB
:10087C00949147FC90810F900FBEF301849187FCFB
:10088C00808198130FC06C817D81C6010E94D50EAA
:10089C00C7010E94D3090E94D802811192CF0E94F5
:1008AC007A098FCFC7010E94D3090E94D80289CF41
:1008BC00C7010E94D3090E94D80280E028960FB687
:1008CC00F894DEBF0FBECDBFDF91CF911F910F917A
:1008DC00FF90EF90DF90CF90BF908F907F906F90B4
:0808EC004F903F902F900895FA
:1008F400CF93DF93A82FCB010596A11DFC015A2F9E
:100904000E94590FDB011696ED91FC911797A4896B
:10091400B589C685D785808991899D838C83C08953
:10092400D189868597859B838A839F01245F3F4F66
:1009340011968D919C9112978217930731F48089B7
:10094400918912969C938E931197158A148A8C918F
:1009540081508C938091D306811160C0A285B385A8
:10096400C481D581868197819D838C83C681D781FB
:10097400848195819B838A839F012E5F3F4F1196CB
:100984008D919C9112978217930731F486819781F8
:1009940012969C938E931197138612868C91815094
:1009A4008C9386899091D806981710F48093D80672
:1009B40090E0DC01AA0FBB1FAA0FBB1FAA0FBB1F2D
:1009C4008A0F9B1FDC01A05AB94F11960D90BC9160
:1009D400A02DB583A48314968D919C91159797832C
:1009E40086831496CD91DC9115973B832A831596C3
:1009F4003C932E931497A689B0E0CD01880F991FDC
:100A0400880F991F880F991FA80FB91FA05AB94FB3
:100A1400B387A2878C918F5F8C931CC046E956E004
:100A2400DA011196CD91DC911297D787C6878C8114
:100A34009D81918B808B8C819D81DC0113963C93ED
:100A44002E9312973D832C83558B448BDA018C9122
:100A54008F5F8C93A091D106B091D2069689569659
:100A64008C91891720F481E08093D60601C080E040
:060A7400DF91CF9108950F
:100A7A00EF92FF920F931F93CF93DF93EC010E94A3
:100A8A00920F8091C3069091C406892B11F5E1EB70
:100A9A00F6E0A4E8B0E0B183A08313821282ECE509
:100AAA00F6E0F093C406E093C30613821282118221
:100ABA00108288ED95E013969C938E931297ED938E
:100ACA00FC939093C0068093BF069093C2068093CE
:100ADA00C106CE0101978A3F9F4F08F067C09E0169
:100AEA002B5F3F4FCB5FDF47C130D04808F461C06E
:100AFA000091C1061091C2060217130708F45CC0E0
:100B0A00C091B106D091B206E1EBF6E002C0FE0157
:100B1A00EC018A819B818217930720F4888199814D
:100B2A000097A9F78091C3069091C406C817D90700
:100B3A0009F445C0E080F18084E0E80EF11C888168
:100B4A009981918380834A815B81421B530B49308F
:100B5A00510550F0CE01820F931FFC01538342834B
:100B6A003B832A830E94280A8A819B81081B190BCE
:100B7A001093C2060093C1062091BF063091C006A9
:100B8A000217130720F41093C0060093BF0690685B
:100B9A009B838A83198218828091BD069091BE0632
:100BAA0001969093BE068093BD060BC0E12CF12CF2
:100BBA0008C0E12CF12C05C0E12CF12C02C0E12C7B
:100BCA00F12C0E94D802C701DF91CF911F910F919A
:060BDA00FF90EF9008956A
:100BE0006F927F928F929F92AF92BF92CF92DF923D
:100BF000EF92FF920F931F93CF93DF9300D000D01B
:100C00001F92CDB7DEB78C015B015D834C83E12C75
:100C1000992493943C0180E8882E6801E1E1CE0E8E
:100C2000D11C0FB6F8940F92F801F28CFF20B9F0A6
:100C3000B501C8010E94360EFA94F801F28E808543
:100C4000882349F0085F1F4FB80180E80E947A04AA
:100C500081110E947A090F900FBE81E053C08C81F0
:100C60009D81892B21F40F900FBE80E04BC0E110D5
:100C700005C0CE0101960E94430FE92C0F900FBED4
:100C80000E94920F0FB6F8940F92F801858D8F3F56
:100C900009F4158EF801868D8F3F09F4168E0F909A
:100CA0000FBEBE016C5F7F4FCE0101960E947A0B92
:100CB00081111BC0882DB3010E94E70E882379F0B3
:100CC0006C817D81C6010E94D50EC8010E94D309A6
:100CD0000E94D8028111A5CF0E947A09A2CFC80133
:100CE0000E94D3090E94D8029CCFC8010E94D30958
:100CF0000E94D802882DB3010E94E70E882309F4D0
:100D000090CF80E00F900F900F900F900F90DF9199
:100D1000CF911F910F91FF90EF90DF90CF90BF90F8
:0C0D2000AF909F908F907F906F9008958F
:100D2C00FF920F931F93CF93DF93EC01F62E00915C
:100D3C00CB061091CC068091D1069091D2060296EA
:100D4C000E940F0DCF3F8FEFD807B1F5FF20A1F117
:100D5C00E4E8F6E0A181B281C091D106D091D2062F
:100D6C00BD83AC83C091D106D091D20614968D91DF
:100D7C009C9115979F838E831496CD91DC9115973A
:100D8C008091D1069091D20602969B838A838091A2
:100D9C00D1069091D206029615969C938E93149739
:100DAC00A091D106B091D2061B96FC93EE931A97A4
:100DBC0080818F5F80832FC0C00FD11FE091D1063F
:100DCC00F091D206D383C283C017D10768F4609127
:100DDC00D1067091D2068091CD069091CE066E5FB1
:100DEC007F4F0E94510C17C06091D1067091D206B2
:100DFC008091CF069091D0066E5F7F4F0E94510C70
:100E0C008091C7069091C806C817D90720F4D093D3
:100E1C00C806C093C706DF91CF911F910F91FF9029
:020E2C00089527
:100E2E0031E1FC013083319722E220833197A3E335
:100E3E00A0833197608331977083319710823197F9
:100E4E0060E8608331971082319762E0608331975A
:100E5E0063E06083319764E06083319765E060837F
:100E6E00319766E06083319767E06083319768E081
:100E7E006083319769E06083319760E160833197D9
:100E8E003083319732E13083319733E130833197BC
:100E9E0034E13083319735E13083319736E1308359
:100EAE00319737E13083319738E13083319739E12B
:100EBE003083319730E23083319731E2308331978E
:100ECE002083319723E220833197408331975083DB
:100EDE00319726E22083319727E22083319728E24B
:100EEE002083319729E22083319720E320833197A5
:080EFE0021E32083869708958B
:100F06000FC00E94760F38F00E947D0F20F09523C7
:100F160011F00C94980F0C94BD0F11240C94850FAE
:100F26000E94590D70F3959FC1F3950F50E0551F20
:100F3600629FF001729FBB27F00DB11D639FAA2728
:100F4600F00DB11DAA1F649F6627B00DA11D661F77
:100F5600829F2227B00DA11D621F739FB00DA11D98
:100F6600621F839FA00D611D221F749F3327A00D52
:100F7600611D231F849F600D211D822F762F6A2FEE
:100F860011249F5750409AF0F1F088234AF0EE0F53
:100F9600FF1FBB1F661F771F881F91505040A9F780
:100FA6009E3F510580F00C94980F0C94850F5F3F7F
:100FB600E4F3983ED4F3869577956795B795F795BC
:100FC600E7959F5FC1F7FE2B880F911D9695879534
:040FD60097F90895EA
:100FDA0011C00E94760F38F00E947D0F20F039F47C
:100FEA009F3F19F426F40C94BD0F0EF4E095E7FB2D
:100FFA000C94980FE92F0E94590D58F3BA176207FB
:10100A0073078407950720F079F4A6F50C94840FEA
:10101A000EF4E0950B2EBA2FA02D0B01B901900109
:10102A000C01CA01A0011124FF27591B99F0593F4D
:10103A0050F4503E68F11A16F040A22F232F342F95
:10104A004427585FF3CF469537952795A795F040E3
:10105A005395C9F77EF41F16BA0B620B730B840BF8
:10106A00BAF09150A1F0FF0FBB1F661F771F881FB0
:10107A00C2F70EC0BA0F621F731F841F48F4879508
:10108A0077956795B795F7959E3F08F0B0CF9395FA
:0E109A00880F08F09927EE0F97958795089517
:1010A8008091D306882321F081E08093D6060895A5
:1010B8001092D6062091D806822F90E0FC01EE0F00
:1010C800FF1FEE0FFF1FEE0FFF1FE80FF91FE05A7B
:1010D800F94F3081311111C02150822F90E0FC016D
:1010E800EE0FFF1FEE0FFF1FEE0FFF1FE80FF91F98
:1010F800E05AF94F3081332379F3AC01440F551F7F
:10110800440F551F440F551F480F591FDA01A05AA5
:10111800B94F1196ED91FC9112970280F381E02D61
:101128001296FC93EE9311974D59594FE417F50712
:1011380029F442815381FD0152834183FC01EE0F62
:10114800FF1FEE0FFF1FEE0FFF1F8E0F9F1FFC01EB
:10115800E05AF94F0180F281E02D868197819093C2
:0C116800D2068093D1062093D80608958B
:10117400EF92FF920F931F93CF93DF93FC01362FCF
:10118400892B09F44DC0238D222309F44BC0022F6F
:1011940010E0448DE42EF12C8FEF9FEFB8010E94F4
:1011A400AE0E6E157F0508F43FC0EF010FB6F8943C
:1011B4000F9260817181CB01249F800D911D1124B8
:1011C40095838483128E73836283015011090E9D6B
:1011D400C0010F9D900D1E9D900D1124860F971F29
:1011E400978386838FEF858F868F31110DC080851D
:1011F400882391F02896BE0180E80E947A0488230F
:1012040059F00E947A0908C0CF0108960E94280F5D
:10121400CE0141960E94280F0F900FBE81E005C0B9
:1012240080E003C080E001C080E0DF91CF911F9196
:081234000F91FF90EF90089567
:10123C000F920FB6F8940F921F9211242F923F9297
:10124C004F925F926F927F928F929F92AF92BF92CA
:10125C00CF92DF92EF92FF920F931F932F933F93B6
:10126C004F935F936F937F938F939F93AF93BF93A2
:10127C00CF93DF93EF93FF93A091D106B091D20659
:10128C000DB60D920EB60D920E94B90181110E94FD
:10129C005408A091D106B091D206CD91CDBFDD916D
:1012AC00DEBFFF91EF91DF91CF91BF91AF919F91F5
:1012BC008F917F916F915F914F913F912F911F91E2
:1012CC000F91FF90EF90DF90CF90BF90AF909F90D9
:1012DC008F907F906F905F904F903F902F901F90CA
:0812EC000F900FBE0F90089552
:1012F4000F920FB6F8940F921F9211242F923F92DF
:101304004F925F926F927F928F929F92AF92BF9211
:10131400CF92DF92EF92FF920F931F932F933F93FD
:101324004F935F936F937F938F939F93AF93BF93E9
:10133400CF93DF93EF93FF93A091D106B091D206A0
:101344000DB60D920EB60D920E945408A091D106CE
:10135400B091D206CD91CDBFDD91DEBFFF91EF916B
:10136400DF91CF91BF91AF919F918F917F916F91B9
:101374005F914F913F912F911F910F91FF90EF90AB
:10138400DF90CF90BF90AF909F908F907F906F90A1
:101394005F904F903F902F901F900F900FBE0F9033
:0213A4000895AA
:1013A600CF92DF92EF920F931F93CF938C010FB6DC
:1013B600F8940F92FC01C68D1C16C4F48189811124
:1013C60006C014C0F8018189811107C00FC06801E9
:1013D600F1E1CF0ED11C80E8E82E8E2DB6010E94D9
:1013E6007A0481110E94AF0FC15061F78FEFF801A7
:1013F600868F0F900FBE0FB6F8940F92C58D1C16F0
:10140600C4F48085811106C014C0F801808581115D
:1014160007C00FC06801F8E0CF0ED11C80E8E82EA7
:101426008E2DB6010E947A0481110E94AF0FC15021
:1014360061F78FEFF801858F0F900FBECF911F9147
:0A1446000F91EF90DF90CF90089512
:10145000CF93DF93DC01E1EBF6E001C0F9012081DD
:1014600031812A173B07D0F382819381AF01480F66
:10147000591FA417B50749F412964D915C91139723
:10148000840F951F93838283DF0112968D919C9127
:101490001397ED01C80FD91F2C173D07D9F42091E0
:1014A000C3063091C406C217D30781F02A813B815D
:1014B000820F931F13969C938E931297C081D181B4
:1014C0008881998111969C938E9307C01196DC9325
:1014D000CE9303C011963C932E93AE17BF0711F025
:0A14E000B183A083DF91CF9108953E
:1014EA000F931F93CF93DF93EC01022F1A8D2C8D4C
:1014FA002223B9F1011116C030E08A819B810E9432
:10150A006B0E2C8D8A819B81820F911D9B838A830E
:10151A002C813D818217930720F1888199819B83D1
:10152A008A831FC030E08E819F810E946B0E8C8D52
:10153A0090E09195819591092E813F81280F391F5D
:10154A003F832E83488159812417350730F42C8133
:10155A003D81820F931F9F838E83023011F41111F4
:10156A0011501F5F1A8F80E0DF91CF911F910F9169
:02157A000895D2
:10157C00FF920F931F93CF93DF93282F362F88233F
:10158C0059F1682F70E08FEF9FEF0E94AE0E832F02
:10159C0090E06817790718F1239FC00111248F3D43
:1015AC005FEF9507F8F4F42E032F122F81960E940B
:1015BC003D05EC010097C1F0011103C099838883AC
:1015CC0003C08196998388831B8F0C8F61E0CE01B9
:1015DC000E94BA08F8A208C0C0E0D0E005C0C0E084
:1015EC00D0E002C0C0E0D0E0CE01DF91CF911F91DE
:0615FC000F91FF9008951D
:10160200E89409C097FB3EF490958095709561959A
:101612007F4F8F4F9F4F9923A9F0F92F96E9BB2750
:101622009395F695879577956795B795F111F8CFCC
:10163200FAF4BB0F11F460FF1BC06F5F7F4F8F4F37
:101642009F4F16C0882311F096E911C0772321F02D
:101652009EE8872F762F05C0662371F096E8862FC5
:1016620070E060E02AF09A95660F771F881FDAF71C
:0A167200880F9695879597F9089563
:10167C000E94C20E80E895E20E94360D47E050E0D1
:10168C0061E070E080E090E00E94840E40E062E057
:10169C0081E00E94BE0A90937200809371000F2E1D
:1016AC00F9EBCF2EF6E0DF2EF02DEE24E39400E0E4
:1016BC0010E028EC30E043EC50E060E082E89CE085
:1016CC000E9467000F2EF7EBCF2EF6E0DF2EF02DE9
:1016DC0028EC30E048EC50E060E08FED9DE00E949B
:0816EC0067000E94B10CFFCF62
:1016F400CF93DF930FB6F8940F922091CB063091DD
:10170400CC06DB014D915C914F3FBFEF5B0719F1B4
:10171400EC01E981FA81A091D506B881BA1741F0AC
:101724002E173F0728F0FB011182108281E014C0BC
:101734002E1B3F0B2417350748F4FB01421B530BA8
:10174400518340830E94430F80E006C0DB011D9259
:101754001C9281E001C080E00F900FBEDF91CF9119
:021764000895E6
:101766000DE816E00F2EF0E6EF2EF6E0FF2EF02D38
:101776008091DA06882329F10FB6F8940F92D801E2
:101786001596ED91FC911697C681D781CE010296EA
:101796000E940F0D8091D90681508093D9068091C1
:1017A600DA0681508093DA060F900FBE8F89988DE6
:1017B6000E94200CCE010E94200C8091DA06811135
:1017C600DBCFF7018081823098F20E947A09D0CF70
:1017D6001BBC89EF8ABD8BE08EBD89B7806189BF4E
:1017E600A091D106B091D206CD91CDBFDD91DEBFDD
:1017F600FF91EF91DF91CF91BF91AF919F918F9123
:101806007F916F915F914F913F912F911F910F9112
:10181600FF90EF90DF90CF90BF90AF909F908F900A
:101826007F906F905F904F903F902F901F900F90FA
:0A1836000FBE0F90089581E00895A1
:10184000CF93DF93009751F1FC01349722813381CC
:10185000332324F540815181452B01F5EF013F777A
:10186000338322830E94920F2091C1063091C206D9
:101870008A819B81820F931F9093C2068093C10639
:10188000CE010E94280A8091BB069091BC06019669
:101890009093BC068093BB060E94D802DF91CF9143
:0218A0000895A9
:1018A200CF93DF93EB01488159814F3F2FEF5207CE
:1018B20021F4FC01A781B0850DC0DC01139601C0A3
:1018C200DF011296ED91FC9113972081318142172D
:1018D2005307B0F71296ED91FC911397FB83EA83BD
:1018E200D583C483BD83AC831396DC93CE931297C6
:1018F20099878887FC0120812F5F2083DF91CF9118
:02190200089546
:1019040085EB96E06C0120E8E22E0E94C40F0E9451
:10191400B70F0E949E0FBC01990F880B990B0E9470
:10192400030B2AE137E64CE950E40E94B30F0E940E
:101934006F0F7093B6066093B50680917100909115
:101944007200009739F001E02AE030E06E2DA60124
:0E1954000E94B60384EF91E00E949A0ED6CF57
:10196200CF92DF92EF920F931F930F2EF5ECCF2EB3
:10197200F6E0DF2EF02DE12C00E010E025E530E06E
:101982004EEA50E060E083EB9BE00E94670081300A
:1019920081F4F8948FEF9FEF9093C8068093C70667
:1019A20081E08093D7061092CC061092CB060E945B
:0E19B200EB0B1F910F91EF90DF90CF900895F7
:1019C0000E94610D88F09F5798F0B92F9927B75161
:1019D000B0F0E1F0660F771F881F991F1AF0BA95D3
:1019E000C9F714C0B13091F00E94840FB1E008959E
:1019F0000C94840F672F782F8827B85F39F0B93F90
:101A0000CCF3869577956795B395D9F73EF4909585
:0E1A10008095709561957F4F8F4F9F4F089581
:101A1E00CF93DF93FC01A085B185C281D3818481F0
:101A2E0095819D838C83C481D581828193819B8393
:101A3E008A8311968D919C911297E817F90731F4CC
:101A4E008481958112969C938E93119711861086A0
:0E1A5E008C9181508C938C91DF91CF910895E3
:101A6C009C01990F440B550B60E074E284EF90E0FD
:101A7C000E947B0DCA01B9010E94010B20E030E0ED
:101A8C0040E85DE30E94B30F20E030E040E85FE304
:101A9C000E94680F0E946F0F69B970BD8AB188618E
:061AAC008AB9579A089563
:101AB20057FD9058440F551F59F05F3F71F04795FD
:101AC200880F97FB991F61F09F3F79F087950895E2
:101AD200121613061406551FF2CF4695F1DF08C001
:101AE200161617061806991FF1CF8695710561051E
:041AF20008940895B7
:101AF600A1E21A2EAA1BBB1BFD010DC0AA1FBB1F0C
:101B0600EE1FFF1FA217B307E407F50720F0A21B7D
:101B1600B30BE40BF50B661F771F881F991F1A94EA
:101B260069F760957095809590959B01AC01BD0114
:041B3600CF0108953E
:101B3A006115710581F061307105D1F444B321E07A
:101B4A0030E0B90102C0660F771F8A95E2F7CB0130
:101B5A00842B84BB089544B321E030E0B90102C06C
:101B6A00660F771F8A95E2F7CB018095842384BBA1
:021B7A000895CC
:101B7C006115710581F061307105D1F441B321E03B
:101B8C0030E0B90102C0660F771F8A95E2F7CB01EE
:101B9C00842B81BB089541B321E030E0B90102C030
:101BAC00660F771F8A95E2F7CB018095842381BB62
:021BBC0008958A
:101BBE0084EF91E00E949A0E8091710090917200D4
:101BCE00009731F04AE050E060E070E00E94F005CE
:101BDE0080910000909101000E94FD0D8DE00E9409
:0C1BEE00A70F84EF91E00E949A0EE6CF52
:101BFA00CF93DF93CDB7DEB72B970FB6F894DEBF3E
:101C0A000FBECDBF4AE0BE016F5F7F4F0E944E0FED
:101C1A00CE0101960E94190F2B960FB6F894DEBFDB
:0A1C2A000FBECDBFDF91CF910895EA
:101C3400E091CF06F091D0068081811107C08FEF2B
:101C44009FEF9093C8068093C7060895E091CF064E
:101C5400F091D0060580F681E02D808191819093EA
:081C6400C8068093C70608952D
:101C6C00FC01248D2223B1F030E046815781420FD4
:101C7C00531F57834683848195814817590720F059
:101C8C008081918197838683CB014681578160E85F
:061C9C000E946B0E08958A
:101CA200BB27FB015527AA27880F991FAA1FA41734
:101CB20010F0A41B83955051B9F7A05DAA3308F028
:101CC200A95DA193009779F7B111B1931192CB015C
:041CD2000C94090F56
:101CD600CF92DF92EF92DC016A01E62E280F391FC0
:101CE600A217B30751F0F6014491E7FC40814D93EA
:101CF6004FEFC41AD40AE40AF3CFEF90DF90CF90E7
:021D060008953E
:101D08000F931F93CF93DF938C01CB01EA010E94BD
:101D1800360FC8010E94610FCE010E94A30F0E94D6
:0C1D2800C20FDF91CF911F910F91089521
:101D3400CF93DF93EC01892B51F00E94920F60E066
:101D4400CE010E9496060E94D802811102C00E9410
:081D54007A09DF91CF91089597
:101D5C00AA1BBB1B51E107C0AA1FBB1FA617B707C5
:101D6C0010F0A61BB70B881F991F5A95A9F78095E1
:081D7C009095BC01CD01089512
:101D840061E070E082E090E00E949D0D61E070E00F
:101D940087E090E00E949D0D61E070E083E090E0B8
:061DA4000E94BE0D08952F
:101DAA00CF93DF93EB016091D1067091D206645F05
:101DBA007F4F0E94510C61E0CE010E949606DF918E
:041DCA00CF91089518
:101DCE000FB6F8940F92A82FCB014A96A11DFC01D5
:101DDE009491A7FD90810F900FBE81E0911180E04C
:021DEE00089556
:101DF000092E0394000C11F4882352F0BB0F40F419
:101E0000BF2B11F460FF04C06F5F7F4F8F4F9F4F58
:021E1000089533
:101E1200DC01FC01672F71917723E1F7329704C04F
:101E22007C916D9370836291AE17BF07C8F30895DA
:101E3200CF93DF93EC018881882331F021960E94B1
:0E1E4200A70F89918111FBCFDF91CF910895F9
:101E5000FC010396928381832FEF3FEF348323832A
:0C1E600096838583908787831082089505
:101E6C0027B10024969587950794969587950794A6
:0A1E7C00982F802D822B87B908955E
:101E86002091D506FC0120832091CB063091CC060B
:061E960032832183089550
:101E9C00BB274A3031F4992322F4BDE29095819509
:061EAC009F4F0C94520E42
:101EB20057FD03C0659175910895619171910895DF
:0E1EC20097B1907E97B997B1892B87B9089593
:0E1ED0005058BB27AA270E94ED070C94F80E6D
:0E1EDE000E94E00C6894B1110C94850F0895D9
:0E1EEC0000240A941616170618060906089513
:0E1EFA0000240A941216130614060506089515
:0E1F0800E894BB2766277727CB0197F9089549
:0E1F1600DC0101C06D9341505040E0F708958A
:0C1F24008091D3068F5F8093D306089550
:0C1F300097F99F6780E870E060E008957A
:0A1F3C0084B125B190E0922B0895C6
:081F460096B1892B86B90895BC
:081F4E005D9BFECF8CB90895E4
:081F5600FC01118610860895BC
:081F5E0081E08093D60608958E
:081F66000E9483070C94F80EA1
:061F6E00349BFECF089534
:061F74000E941E091895F1
:061F7A009FEF80EC0895CA
:041F80000C940000BD
:041F8400379A0895EB
:041F8800369A0895E8
:00000001FF
