:100000000C942D000C9443020C9443020C94430274
:100010000C9443020C9443020C9443020C9443024C
:100020000C9443020C9443020C94CF000C944302B2
:100030000C9443020C9443020C9443020C9443022C
:100040000C9443020C9443020C9443020C9443021C
:100050000C94430200600064800011241FBECFE5B1
:10006000D8E0DEBFCDBFE4E5F0E040E017C0B591D9
:10007000A59135912591059107FD0CC0959185912C
:10008000EF01F92FE82F05900D92A217B307D9F7CA
:10009000FE0104C01D92A217B307E1F7E935F4078A
:0E00A00031F70E9457000C945500F894FFCFE2
:1000AE000E94C6010E94980084E68CBF61E070E059
:1000BE0083E090E00E941D0183B7806183BF65E0FD
:1000CE0070E081E090E00E94F7000E943F02789479
:1000DE0082E00E94D901882361F08CB7865F8CBFC5
:1000EE002FEF84E39CE0215080409040E1F700C068
:1000FE00000086E00E94D901882361F08CB78A50F7
:10010E008CBF2FEF84E39CE0215080409040E1F7BC
:10011E0000C000000E942C028CB790E00E945F018C
:02012E00D7CF29
:100130008AB3806F8ABB87B3866187BBC2988FE919
:100140009FE00197F1F700C000000E942C0282E0BE
:100150000E9496018FE39FE10197F1F700C0000034
:1001600086E00E9496018FE39FE10197F1F700C0BE
:1001700000008CE00E9496018FE39FE10197F1F768
:1001800000C000008CE20E9496019FEF20E782E011
:0E019000915020408040E1F700C0000008952B
:10019E001F920F920FB60F9211248F939F938091FF
:1001AE0062009091630001969093630080936200C9
:1001BE008C39910571F48091600090916100CC971B
:1001CE0021F4109261001092600010926300109260
:1001DE0062009F918F910F900FBE0F901F901895F8
:1001EE008130910571F01CF4892B39F01BC08230DF
:1001FE00910571F0039799F015C083B7877B83BF84
:10020E0011C083B78F7B83BF83B7886083BF0AC05B
:10021E0083B7877F83BF83B7806483BF03C083B7F1
:0C022E00886483BF83B7682B63BF08950A
:10023A006115710581F061307105D1F447B321E090
:10024A0030E0B90102C0660F771F8A95E2F7CB0149
:10025A00842B87BB089547B321E030E0B90102C07F
:10026A00660F771F8A95E2F7CB018095842387BBB7
:02027A000895E5
:10027C006115710581F061307105D1F441B321E054
:10028C0030E0B90102C0660F771F8A95E2F7CB0107
:10029C00842B81BB089541B321E030E0B90102C049
:1002AC00660F771F8A95E2F7CB018095842381BB7B
:0202BC000895A3
:1002BE00CF93DF93CDB7DEB72B970FB6F894DEBF93
:1002CE000FBECDBF4AE0BE016F5F7F4F0E9421027D
:1002DE00CE0101960E94FA012B960FB6F894DEBF5E
:0A02EE000FBECDBFDF91CF91089540
:1002F800BB27FB015527AA27880F991FAA1FA417F8
:1003080010F0A41B83955051B9F7A05DAA3308F0EB
:10031800A95DA193009779F7B111B1931192CB011F
:040328000C94EA0146
:10032C00CF93C82FC1988BB38F709C2F907F892B44
:10033C008BBB0E9436028BB3282F2F7030E1C39FEA
:10034C00C0011124822B8BBB0E943602CF910895E1
:10035C00CF93C82FC19A8BB38F709C2F907F892B12
:10036C008BBB0E9436028BB3282F2F7030E1C39FBA
:10037C00C0011124822B8BBB0E943602CF910895B1
:10038C0060E070E080E090E00E941D0160E070E0B1
:10039C0086E090E00E943E0160E070E082E090E038
:0603AC000E943E010895CD
:1003B200823049F0863039F0811109C080E090E046
:1003C2000E940902089590E00E94150208958FEF9D
:0203D20008958C
:1003D400DC01FC01672F71917723E1F7329704C0A8
:1003E4007C916D9370836291AE17BF07C8F3089533
:1003F400CF93DF93EC018881882331F021960E940A
:0E040400AE0189918111FBCFDF91CF91089558
:1004120026B330E0A90102C0559547958A95E2F7C7
:08042200CA01817099270895B9
:10042A0020B330E0A90102C0559547958A95E2F7B5
:08043A00CA01817099270895A1
:10044200BB274A3031F4992322F4BDE2909581957D
:060452009F4F0C947D0198
:1004580081E00E9496018FE79EE30197F1F700C0C3
:0404680000000895F3
:10046C00C49A87EC90E00197F1F700C00000C498A3
:02047C000895E1
:08047E0089B7826089BF08956F
:040486000C940000D2
:00000001FF
